{
  "contractName": "Caller",
  "abi": [
    {
      "inputs": [],
      "name": "f",
      "outputs": [
        {
          "internalType": "uint256",
          "name": "",
          "type": "uint256"
        }
      ],
      "stateMutability": "view",
      "type": "function"
    }
  ],
  "bytecode": "0x60806040526040516100109061007e565b604051809103906000f08015801561002c573d6000803e3d6000fd5b506000806101000a81548173ffffffffffffffffffffffffffffffffffffffff021916908373ffffffffffffffffffffffffffffffffffffffff16021790555034801561007857600080fd5b5061008b565b6101128061024783390190565b6101ad8061009a6000396000f3fe608060405234801561001057600080fd5b506004361061002b5760003560e01c806326121ff014610030575b600080fd5b61003861004e565b60405161004591906100fe565b60405180910390f35b60008060009054906101000a900473ffffffffffffffffffffffffffffffffffffffff1673ffffffffffffffffffffffffffffffffffffffff166373d4a13a6040518163ffffffff1660e01b8152600401602060405180830381865afa1580156100bc573d6000803e3d6000fd5b505050506040513d601f19601f820116820180604052508101906100e0919061014a565b905090565b6000819050919050565b6100f8816100e5565b82525050565b600060208201905061011360008301846100ef565b92915050565b600080fd5b610127816100e5565b811461013257600080fd5b50565b6000815190506101448161011e565b92915050565b6000602082840312156101605761015f610119565b5b600061016e84828501610135565b9150509291505056fea2646970667358221220111556c24ef52b793786722e8d11bc8b42eb1bfea147d382fff6d92b02de983964736f6c634300080d00336080604052601e600055600a60015534801561001a57600080fd5b5060e9806100296000396000f3fe6080604052348015600f57600080fd5b506004361060325760003560e01c80630c55699c14603757806373d4a13a146051575b600080fd5b603d606b565b60405160489190609a565b60405180910390f35b6057607d565b60405160629190609a565b60405180910390f35b60006003600081905550600054905090565b60005481565b6000819050919050565b6094816083565b82525050565b600060208201905060ad6000830184608d565b9291505056fea2646970667358221220feaacc5d279d303e4d84d075c9276db2c7f544c69ce3b2449ee1a8fa5b928bf764736f6c634300080d0033",
  "immutableReferences": {},
  "source": "// SPDX-License-Identifier: MIT\r\npragma solidity >=0.4.22 <0.9.0;\r\n\r\ncontract MyContract{\r\n    string value;\r\n    constructor(){\r\n        value = \"Default Value\";\r\n    }\r\n    function get() public view returns(string memory){\r\n        return value;\r\n    }\r\n\r\n    function set(string memory _value) public{\r\n        value = _value;\r\n    }\r\n\r\n    \r\n}\r\n\r\ncontract Next{\r\n    uint public data= 30;\r\n    uint internal iData = 10;\r\n\r\n    function x() public returns (uint){\r\n        data = 3; //internal access\r\n        return data;\r\n    }\r\n}\r\n\r\ncontract Caller{\r\n    Next next = new Next();\r\n    function f() public view returns (uint){\r\n        return next.data(); //External access\r\n    }\r\n}\r\n\r\ncontract D is Next{\r\n    function y() public returns (uint){\r\n        iData = 3;\r\n        return iData;\r\n    }\r\n    \r\n    function getResult() public view returns(uint){\r\n        uint a=1; //Local variables\r\n        uint b=2;\r\n        uint result = a+b;\r\n        return result;\r\n    }\r\n}",
  "sourcePath": "C:\\Users\\alioz\\Documents\\ContractTests\\contracts\\MyContract.sol",
  "compiler": {
    "name": "solc",
    "version": "0.8.13+commit.abaa5c0e.Emscripten.clang"
  },
  "schemaVersion": "3.4.6",
  "updatedAt": "2022-06-10T13:42:36.582Z",
  "devdoc": {
    "kind": "dev",
    "methods": {},
    "version": 1
  },
  "userdoc": {
    "kind": "user",
    "methods": {},
    "version": 1
  }
}