{
  "contractName": "D",
  "abi": [
    {
      "inputs": [],
      "name": "data",
      "outputs": [
        {
          "internalType": "uint256",
          "name": "",
          "type": "uint256"
        }
      ],
      "stateMutability": "view",
      "type": "function"
    },
    {
      "inputs": [],
      "name": "x",
      "outputs": [
        {
          "internalType": "uint256",
          "name": "",
          "type": "uint256"
        }
      ],
      "stateMutability": "nonpayable",
      "type": "function"
    },
    {
      "inputs": [],
      "name": "y",
      "outputs": [
        {
          "internalType": "uint256",
          "name": "",
          "type": "uint256"
        }
      ],
      "stateMutability": "nonpayable",
      "type": "function"
    },
    {
      "inputs": [],
      "name": "getResult",
      "outputs": [
        {
          "internalType": "uint256",
          "name": "",
          "type": "uint256"
        }
      ],
      "stateMutability": "view",
      "type": "function"
    }
  ],
  "bytecode": "0x6080604052601e600055600a60015534801561001a57600080fd5b506102088061002a6000396000f3fe608060405234801561001057600080fd5b506004361061004c5760003560e01c80630c55699c1461005157806373d4a13a1461006f578063a56dfe4a1461008d578063de292789146100ab575b600080fd5b6100596100c9565b6040516100669190610132565b60405180910390f35b6100776100db565b6040516100849190610132565b60405180910390f35b6100956100e1565b6040516100a29190610132565b60405180910390f35b6100b36100f3565b6040516100c09190610132565b60405180910390f35b60006003600081905550600054905090565b60005481565b60006003600181905550600154905090565b600080600190506000600290506000818361010e919061017c565b905080935050505090565b6000819050919050565b61012c81610119565b82525050565b60006020820190506101476000830184610123565b92915050565b7f4e487b7100000000000000000000000000000000000000000000000000000000600052601160045260246000fd5b600061018782610119565b915061019283610119565b9250827fffffffffffffffffffffffffffffffffffffffffffffffffffffffffffffffff038211156101c7576101c661014d565b5b82820190509291505056fea2646970667358221220b134efa8e471a8c5b56d24b2bc13817ecf3d32981819b028ee2b9e19370b12de64736f6c634300080d0033",
  "immutableReferences": {},
  "source": "// SPDX-License-Identifier: MIT\r\npragma solidity >=0.4.22 <0.9.0;\r\n\r\ncontract MyContract{\r\n    string value;\r\n    mapping (address => testStruct) addressTest;\r\n\r\n    struct testStruct{\r\n        string text;\r\n        address payable walletAddress;\r\n    }\r\n\r\n    constructor(){\r\n        value = \"Default Value\";\r\n    }\r\n    function get() public view returns(string memory){\r\n        return value;\r\n    }\r\n\r\n    function set(string memory _value) public{\r\n        value = _value;\r\n    }    \r\n\r\n    function addAddress() public{\r\n        addressTest[msg.sender].walletAddress = payable(msg.sender);\r\n        addressTest[msg.sender].text = \"Calis artik yeter\";\r\n    }\r\n\r\n    function getAddress() public view returns(testStruct memory){\r\n        return addressTest[msg.sender];\r\n    }\r\n}\r\n\r\ncontract Next{\r\n    uint public data= 30;\r\n    uint internal iData = 10;\r\n\r\n    function x() public returns (uint){\r\n        data = 3; //internal access\r\n        return data;\r\n    }\r\n}\r\n\r\ncontract Caller{\r\n    Next next = new Next();\r\n    function f() public view returns (uint){\r\n        return next.data(); //External access\r\n    }\r\n}\r\n\r\ncontract D is Next{\r\n    function y() public returns (uint){\r\n        iData = 3;\r\n        return iData;\r\n    }\r\n    \r\n    function getResult() public view returns(uint){\r\n        uint a=1; //Local variables\r\n        uint b=2;\r\n        uint result = a+b;\r\n        return result;\r\n    }\r\n}",
  "sourcePath": "C:\\Users\\alioz\\Documents\\ContractTests\\contracts\\MyContract.sol",
  "compiler": {
    "name": "solc",
    "version": "0.8.13+commit.abaa5c0e.Emscripten.clang"
  },
  "schemaVersion": "3.4.6",
  "updatedAt": "2022-06-11T14:36:11.042Z",
  "devdoc": {
    "kind": "dev",
    "methods": {},
    "version": 1
  },
  "userdoc": {
    "kind": "user",
    "methods": {},
    "version": 1
  }
}