{
  "contractName": "KriptoBagis",
  "abi": [
    {
      "inputs": [],
      "stateMutability": "nonpayable",
      "type": "constructor"
    },
    {
      "anonymous": false,
      "inputs": [
        {
          "indexed": true,
          "internalType": "address",
          "name": "_managerAddress",
          "type": "address"
        }
      ],
      "name": "AddManager",
      "type": "event"
    },
    {
      "anonymous": false,
      "inputs": [
        {
          "indexed": true,
          "internalType": "address",
          "name": "_manager",
          "type": "address"
        },
        {
          "indexed": true,
          "internalType": "address",
          "name": "_validatedAddress",
          "type": "address"
        }
      ],
      "name": "AddressValidation",
      "type": "event"
    },
    {
      "anonymous": false,
      "inputs": [
        {
          "indexed": true,
          "internalType": "address",
          "name": "_donor",
          "type": "address"
        },
        {
          "indexed": false,
          "internalType": "uint256",
          "name": "_value",
          "type": "uint256"
        },
        {
          "indexed": true,
          "internalType": "address",
          "name": "_destinationAddress",
          "type": "address"
        }
      ],
      "name": "Donation",
      "type": "event"
    },
    {
      "anonymous": false,
      "inputs": [
        {
          "components": [
            {
              "internalType": "address payable",
              "name": "organizationAddress",
              "type": "address"
            },
            {
              "internalType": "string",
              "name": "organizationName",
              "type": "string"
            },
            {
              "internalType": "enum KriptoBagis.OrganizationType[]",
              "name": "organizationTypes",
              "type": "uint8[]"
            },
            {
              "internalType": "bool",
              "name": "isValidated",
              "type": "bool"
            }
          ],
          "indexed": false,
          "internalType": "struct KriptoBagis.Organization",
          "name": "_a",
          "type": "tuple"
        }
      ],
      "name": "OrganizationAdded",
      "type": "event"
    },
    {
      "inputs": [
        {
          "internalType": "string",
          "name": "organizationName",
          "type": "string"
        },
        {
          "internalType": "enum KriptoBagis.OrganizationType[]",
          "name": "organizationTypes",
          "type": "uint8[]"
        }
      ],
      "name": "addNewOrganization",
      "outputs": [],
      "stateMutability": "nonpayable",
      "type": "function"
    },
    {
      "inputs": [],
      "name": "getAddresses",
      "outputs": [
        {
          "internalType": "address payable[]",
          "name": "",
          "type": "address[]"
        }
      ],
      "stateMutability": "view",
      "type": "function",
      "constant": true
    },
    {
      "inputs": [],
      "name": "getAddress",
      "outputs": [
        {
          "components": [
            {
              "internalType": "address payable",
              "name": "organizationAddress",
              "type": "address"
            },
            {
              "internalType": "string",
              "name": "organizationName",
              "type": "string"
            },
            {
              "internalType": "enum KriptoBagis.OrganizationType[]",
              "name": "organizationTypes",
              "type": "uint8[]"
            },
            {
              "internalType": "bool",
              "name": "isValidated",
              "type": "bool"
            }
          ],
          "internalType": "struct KriptoBagis.Organization",
          "name": "",
          "type": "tuple"
        }
      ],
      "stateMutability": "view",
      "type": "function",
      "constant": true
    },
    {
      "inputs": [
        {
          "internalType": "address payable",
          "name": "charityAddress",
          "type": "address"
        }
      ],
      "name": "getAddressInfos",
      "outputs": [
        {
          "internalType": "address payable",
          "name": "",
          "type": "address"
        },
        {
          "internalType": "string",
          "name": "",
          "type": "string"
        },
        {
          "internalType": "enum KriptoBagis.OrganizationType[]",
          "name": "",
          "type": "uint8[]"
        },
        {
          "internalType": "bool",
          "name": "",
          "type": "bool"
        }
      ],
      "stateMutability": "view",
      "type": "function",
      "constant": true
    },
    {
      "inputs": [
        {
          "internalType": "address payable",
          "name": "destinationAddress",
          "type": "address"
        },
        {
          "internalType": "address payable[]",
          "name": "otherAddresses",
          "type": "address[]"
        },
        {
          "internalType": "uint256",
          "name": "mainPercentage",
          "type": "uint256"
        }
      ],
      "name": "deposit",
      "outputs": [],
      "stateMutability": "payable",
      "type": "function",
      "payable": true
    },
    {
      "inputs": [
        {
          "internalType": "address payable",
          "name": "destinationAddress",
          "type": "address"
        },
        {
          "internalType": "uint256",
          "name": "mainPercentage",
          "type": "uint256"
        }
      ],
      "name": "depositDirect",
      "outputs": [],
      "stateMutability": "payable",
      "type": "function",
      "payable": true
    },
    {
      "inputs": [
        {
          "internalType": "address payable",
          "name": "validatingAddress",
          "type": "address"
        }
      ],
      "name": "validateCharityAddress",
      "outputs": [],
      "stateMutability": "nonpayable",
      "type": "function"
    },
    {
      "inputs": [
        {
          "internalType": "address",
          "name": "managerAddress",
          "type": "address"
        }
      ],
      "name": "addManagerAddress",
      "outputs": [],
      "stateMutability": "nonpayable",
      "type": "function"
    },
    {
      "inputs": [],
      "name": "getTotalDonationsAmount",
      "outputs": [
        {
          "internalType": "uint256",
          "name": "",
          "type": "uint256"
        }
      ],
      "stateMutability": "view",
      "type": "function",
      "constant": true
    },
    {
      "inputs": [],
      "name": "getHighestDonation",
      "outputs": [
        {
          "internalType": "uint256",
          "name": "",
          "type": "uint256"
        },
        {
          "internalType": "address payable",
          "name": "",
          "type": "address"
        }
      ],
      "stateMutability": "view",
      "type": "function",
      "constant": true
    },
    {
      "inputs": [],
      "name": "destroy",
      "outputs": [],
      "stateMutability": "nonpayable",
      "type": "function"
    }
  ],
  "bytecode": "0x608060405234801561001057600080fd5b50336000806101000a81548173ffffffffffffffffffffffffffffffffffffffff021916908373ffffffffffffffffffffffffffffffffffffffff16021790555060006004819055506000600581905550613a3b806100706000396000f3fe60806040526004361061009c5760003560e01c806341abfdc01161006457806341abfdc01461016557806383197ef0146101815780638e83a51314610198578063a39fac12146101c1578063de56a296146101ec578063efb349af1461022c5761009c565b8063129009b8146100a1578063141b8809146100ca57806329b0f4f2146100f557806333f075de1461011e57806338cc48311461013a575b600080fd5b3480156100ad57600080fd5b506100c860048036038101906100c39190611a7d565b610258565b005b3480156100d657600080fd5b506100df610465565b6040516100ec9190611ac3565b60405180910390f35b34801561010157600080fd5b5061011c60048036038101906101179190611d11565b61046f565b005b61013860048036038101906101339190611df3565b61074b565b005b34801561014657600080fd5b5061014f610a98565b60405161015c9190612075565b60405180910390f35b61017f600480360381019061017a919061215a565b610c7f565b005b34801561018d57600080fd5b506101966111a0565b005b3480156101a457600080fd5b506101bf60048036038101906101ba91906121c9565b611267565b005b3480156101cd57600080fd5b506101d6611527565b6040516101e391906122a5565b60405180910390f35b3480156101f857600080fd5b50610213600480360381019061020e91906121c9565b6115b5565b604051610223949392919061239e565b60405180910390f35b34801561023857600080fd5b506102416117b3565b60405161024f9291906123f1565b60405180910390f35b60008054906101000a900473ffffffffffffffffffffffffffffffffffffffff1673ffffffffffffffffffffffffffffffffffffffff163373ffffffffffffffffffffffffffffffffffffffff16146102e6576040517f08c379a00000000000000000000000000000000000000000000000000000000081526004016102dd906124b2565b60405180910390fd5b600160003373ffffffffffffffffffffffffffffffffffffffff1673ffffffffffffffffffffffffffffffffffffffff16815260200190815260200160002060009054906101000a900460ff1680610389575060008054906101000a900473ffffffffffffffffffffffffffffffffffffffff1673ffffffffffffffffffffffffffffffffffffffff163373ffffffffffffffffffffffffffffffffffffffff16145b6103c8576040517f08c379a00000000000000000000000000000000000000000000000000000000081526004016103bf90612544565b60405180910390fd5b60018060008373ffffffffffffffffffffffffffffffffffffffff1673ffffffffffffffffffffffffffffffffffffffff16815260200190815260200160002060006101000a81548160ff0219169083151502179055508073ffffffffffffffffffffffffffffffffffffffff167f3630096a7f9a158ab9fae41e86bfe31fd2202585a26a9668242672566dae028d60405160405180910390a250565b6000600454905090565b3360006001905060005b60038054905081101561050f578273ffffffffffffffffffffffffffffffffffffffff16600382815481106104b1576104b0612564565b5b9060005260206000200160009054906101000a900473ffffffffffffffffffffffffffffffffffffffff1673ffffffffffffffffffffffffffffffffffffffff16036104fc57600091505b8080610507906125c2565b915050610479565b5080610550576040517f08c379a00000000000000000000000000000000000000000000000000000000081526004016105479061267c565b60405180910390fd5b60405180608001604052803373ffffffffffffffffffffffffffffffffffffffff16815260200185815260200184815260200160001515815250600260003373ffffffffffffffffffffffffffffffffffffffff1673ffffffffffffffffffffffffffffffffffffffff16815260200190815260200160002060008201518160000160006101000a81548173ffffffffffffffffffffffffffffffffffffffff021916908373ffffffffffffffffffffffffffffffffffffffff160217905550602082015181600101908051906020019061062c929190611872565b5060408201518160020190805190602001906106499291906118f8565b5060608201518160030160006101000a81548160ff0219169083151502179055509050506003339080600181540180825580915050600190039060005260206000200160009091909190916101000a81548173ffffffffffffffffffffffffffffffffffffffff021916908373ffffffffffffffffffffffffffffffffffffffff1602179055507f136ec7fc04dce4fb0c0699d543d7a95ca3c59a6e3eda6583b5ce2a02dd762af9600260003373ffffffffffffffffffffffffffffffffffffffff1673ffffffffffffffffffffffffffffffffffffffff16815260200190815260200160002060405161073d91906135c5565b60405180910390a150505050565b818073ffffffffffffffffffffffffffffffffffffffff163373ffffffffffffffffffffffffffffffffffffffff16036107ba576040517f08c379a00000000000000000000000000000000000000000000000000000000081526004016107b190613659565b60405180910390fd5b600034116107fd576040517f08c379a00000000000000000000000000000000000000000000000000000000081526004016107f4906136eb565b60405180910390fd5b82600060038054905011610846576040517f08c379a000000000000000000000000000000000000000000000000000000000815260040161083d9061377d565b60405180910390fd5b6000805b6003805490508110156108e0578273ffffffffffffffffffffffffffffffffffffffff166003828154811061088257610881612564565b5b9060005260206000200160009054906101000a900473ffffffffffffffffffffffffffffffffffffffff1673ffffffffffffffffffffffffffffffffffffffff16036108cd57600191505b80806108d8906125c2565b91505061084a565b5080610921576040517f08c379a00000000000000000000000000000000000000000000000000000000081526004016109189061380f565b60405180910390fd5b83600081118015610933575060648111155b610972576040517f08c379a0000000000000000000000000000000000000000000000000000000008152600401610969906138a1565b60405180910390fd5b60003490508673ffffffffffffffffffffffffffffffffffffffff166108fc829081150290604051600060405180830381858888f193505050501580156109bd573d6000803e3d6000fd5b508673ffffffffffffffffffffffffffffffffffffffff163373ffffffffffffffffffffffffffffffffffffffff167fc0bceae83bc3bc42cc5b2ff5d9c6f6895bbb7b727b9a086a371689055789aabe83604051610a1b9190611ac3565b60405180910390a38060046000828254610a3591906138c1565b92505081905550600554811115610a8f578060058190555033600660006101000a81548173ffffffffffffffffffffffffffffffffffffffff021916908373ffffffffffffffffffffffffffffffffffffffff1602179055505b50505050505050565b610aa06119ae565b600260003373ffffffffffffffffffffffffffffffffffffffff1673ffffffffffffffffffffffffffffffffffffffff1681526020019081526020016000206040518060800160405290816000820160009054906101000a900473ffffffffffffffffffffffffffffffffffffffff1673ffffffffffffffffffffffffffffffffffffffff1673ffffffffffffffffffffffffffffffffffffffff168152602001600182018054610b5090612712565b80601f0160208091040260200160405190810160405280929190818152602001828054610b7c90612712565b8015610bc95780601f10610b9e57610100808354040283529160200191610bc9565b820191906000526020600020905b815481529060010190602001808311610bac57829003601f168201915b5050505050815260200160028201805480602002602001604051908101604052809291908181526020018280548015610c5657602002820191906000526020600020906000905b82829054906101000a900460ff166007811115610c3057610c2f611ef6565b5b81526020019060010190602082600001049283019260010382029150808411610c105790505b505050505081526020016003820160009054906101000a900460ff161515151581525050905090565b828073ffffffffffffffffffffffffffffffffffffffff163373ffffffffffffffffffffffffffffffffffffffff1603610cee576040517f08c379a0000000000000000000000000000000000000000000000000000000008152600401610ce590613659565b60405180910390fd5b60003411610d31576040517f08c379a0000000000000000000000000000000000000000000000000000000008152600401610d28906136eb565b60405180910390fd5b83600060038054905011610d7a576040517f08c379a0000000000000000000000000000000000000000000000000000000008152600401610d719061377d565b60405180910390fd5b6000805b600380549050811015610e14578273ffffffffffffffffffffffffffffffffffffffff1660038281548110610db657610db5612564565b5b9060005260206000200160009054906101000a900473ffffffffffffffffffffffffffffffffffffffff1673ffffffffffffffffffffffffffffffffffffffff1603610e0157600191505b8080610e0c906125c2565b915050610d7e565b5080610e55576040517f08c379a0000000000000000000000000000000000000000000000000000000008152600401610e4c9061380f565b60405180910390fd5b846000805b600380549050811015610f2a5760005b8351811015610f1657838181518110610e8657610e85612564565b5b602002602001015173ffffffffffffffffffffffffffffffffffffffff1660038381548110610eb857610eb7612564565b5b9060005260206000200160009054906101000a900473ffffffffffffffffffffffffffffffffffffffff1673ffffffffffffffffffffffffffffffffffffffff1603610f0357600192505b8080610f0e906125c2565b915050610e6a565b508080610f22906125c2565b915050610e5a565b5080610f6b576040517f08c379a0000000000000000000000000000000000000000000000000000000008152600401610f629061380f565b60405180910390fd5b85600081118015610f7d575060648111155b610fbc576040517f08c379a0000000000000000000000000000000000000000000000000000000008152600401610fb3906138a1565b60405180910390fd5b600060648834610fcc9190613917565b610fd691906139a0565b905060008134610fe691906139d1565b905060008a5182610ff791906139a0565b905060005b8b51811015611079578b818151811061101857611017612564565b5b602002602001015173ffffffffffffffffffffffffffffffffffffffff166108fc839081150290604051600060405180830381858888f19350505050158015611065573d6000803e3d6000fd5b508080611071906125c2565b915050610ffc565b508b73ffffffffffffffffffffffffffffffffffffffff166108fc849081150290604051600060405180830381858888f193505050501580156110c0573d6000803e3d6000fd5b508b73ffffffffffffffffffffffffffffffffffffffff163373ffffffffffffffffffffffffffffffffffffffff167fc0bceae83bc3bc42cc5b2ff5d9c6f6895bbb7b727b9a086a371689055789aabe8560405161111e9190611ac3565b60405180910390a3826004600082825461113891906138c1565b92505081905550600554831115611192578260058190555033600660006101000a81548173ffffffffffffffffffffffffffffffffffffffff021916908373ffffffffffffffffffffffffffffffffffffffff1602179055505b505050505050505050505050565b60008054906101000a900473ffffffffffffffffffffffffffffffffffffffff1673ffffffffffffffffffffffffffffffffffffffff163373ffffffffffffffffffffffffffffffffffffffff161461122e576040517f08c379a0000000000000000000000000000000000000000000000000000000008152600401611225906124b2565b60405180910390fd5b60008054906101000a900473ffffffffffffffffffffffffffffffffffffffff1673ffffffffffffffffffffffffffffffffffffffff16ff5b600160003373ffffffffffffffffffffffffffffffffffffffff1673ffffffffffffffffffffffffffffffffffffffff16815260200190815260200160002060009054906101000a900460ff168061130a575060008054906101000a900473ffffffffffffffffffffffffffffffffffffffff1673ffffffffffffffffffffffffffffffffffffffff163373ffffffffffffffffffffffffffffffffffffffff16145b611349576040517f08c379a000000000000000000000000000000000000000000000000000000000815260040161134090612544565b60405180910390fd5b80600060038054905011611392576040517f08c379a00000000000000000000000000000000000000000000000000000000081526004016113899061377d565b60405180910390fd5b6000805b60038054905081101561142c578273ffffffffffffffffffffffffffffffffffffffff16600382815481106113ce576113cd612564565b5b9060005260206000200160009054906101000a900473ffffffffffffffffffffffffffffffffffffffff1673ffffffffffffffffffffffffffffffffffffffff160361141957600191505b8080611424906125c2565b915050611396565b508061146d576040517f08c379a00000000000000000000000000000000000000000000000000000000081526004016114649061380f565b60405180910390fd5b6001600260008573ffffffffffffffffffffffffffffffffffffffff1673ffffffffffffffffffffffffffffffffffffffff16815260200190815260200160002060030160006101000a81548160ff0219169083151502179055508273ffffffffffffffffffffffffffffffffffffffff163373ffffffffffffffffffffffffffffffffffffffff167ff880befad2c8adef70e70928090f5097492cac381953be7c05fd142924a39ecd60405160405180910390a3505050565b606060038054806020026020016040519081016040528092919081815260200182805480156115ab57602002820191906000526020600020905b8160009054906101000a900473ffffffffffffffffffffffffffffffffffffffff1673ffffffffffffffffffffffffffffffffffffffff1681526020019060010190808311611561575b5050505050905090565b6000606080600084600260008773ffffffffffffffffffffffffffffffffffffffff1673ffffffffffffffffffffffffffffffffffffffff168152602001908152602001600020600101600260008873ffffffffffffffffffffffffffffffffffffffff1673ffffffffffffffffffffffffffffffffffffffff168152602001908152602001600020600201600260008973ffffffffffffffffffffffffffffffffffffffff1673ffffffffffffffffffffffffffffffffffffffff16815260200190815260200160002060030160009054906101000a900460ff1682805461169d90612712565b80601f01602080910402602001604051908101604052809291908181526020018280546116c990612712565b80156117165780601f106116eb57610100808354040283529160200191611716565b820191906000526020600020905b8154815290600101906020018083116116f957829003601f168201915b505050505092508180548060200260200160405190810160405280929190818152602001828054801561179d57602002820191906000526020600020906000905b82829054906101000a900460ff16600781111561177757611776611ef6565b5b815260200190600101906020826000010492830192600103820291508084116117575790505b5050505050915093509350935093509193509193565b60008060008054906101000a900473ffffffffffffffffffffffffffffffffffffffff1673ffffffffffffffffffffffffffffffffffffffff163373ffffffffffffffffffffffffffffffffffffffff1614611844576040517f08c379a000000000000000000000000000000000000000000000000000000000815260040161183b906124b2565b60405180910390fd5b600554600660009054906101000a900473ffffffffffffffffffffffffffffffffffffffff16915091509091565b82805461187e90612712565b90600052602060002090601f0160209004810192826118a057600085556118e7565b82601f106118b957805160ff19168380011785556118e7565b828001600101855582156118e7579182015b828111156118e65782518255916020019190600101906118cb565b5b5090506118f491906119ee565b5090565b82805482825590600052602060002090601f0160209004810192821561199d5791602002820160005b8382111561196e57835183826101000a81548160ff0219169083600781111561194d5761194c611ef6565b5b02179055509260200192600101602081600001049283019260010302611921565b801561199b5782816101000a81549060ff021916905560010160208160000104928301926001030261196e565b505b5090506119aa91906119ee565b5090565b6040518060800160405280600073ffffffffffffffffffffffffffffffffffffffff16815260200160608152602001606081526020016000151581525090565b5b80821115611a075760008160009055506001016119ef565b5090565b6000604051905090565b600080fd5b600080fd5b600073ffffffffffffffffffffffffffffffffffffffff82169050919050565b6000611a4a82611a1f565b9050919050565b611a5a81611a3f565b8114611a6557600080fd5b50565b600081359050611a7781611a51565b92915050565b600060208284031215611a9357611a92611a15565b5b6000611aa184828501611a68565b91505092915050565b6000819050919050565b611abd81611aaa565b82525050565b6000602082019050611ad86000830184611ab4565b92915050565b600080fd5b600080fd5b6000601f19601f8301169050919050565b7f4e487b7100000000000000000000000000000000000000000000000000000000600052604160045260246000fd5b611b3182611ae8565b810181811067ffffffffffffffff82111715611b5057611b4f611af9565b5b80604052505050565b6000611b63611a0b565b9050611b6f8282611b28565b919050565b600067ffffffffffffffff821115611b8f57611b8e611af9565b5b611b9882611ae8565b9050602081019050919050565b82818337600083830152505050565b6000611bc7611bc284611b74565b611b59565b905082815260208101848484011115611be357611be2611ae3565b5b611bee848285611ba5565b509392505050565b600082601f830112611c0b57611c0a611ade565b5b8135611c1b848260208601611bb4565b91505092915050565b600067ffffffffffffffff821115611c3f57611c3e611af9565b5b602082029050602081019050919050565b600080fd5b60088110611c6257600080fd5b50565b600081359050611c7481611c55565b92915050565b6000611c8d611c8884611c24565b611b59565b90508083825260208201905060208402830185811115611cb057611caf611c50565b5b835b81811015611cd95780611cc58882611c65565b845260208401935050602081019050611cb2565b5050509392505050565b600082601f830112611cf857611cf7611ade565b5b8135611d08848260208601611c7a565b91505092915050565b60008060408385031215611d2857611d27611a15565b5b600083013567ffffffffffffffff811115611d4657611d45611a1a565b5b611d5285828601611bf6565b925050602083013567ffffffffffffffff811115611d7357611d72611a1a565b5b611d7f85828601611ce3565b9150509250929050565b6000611d9482611a1f565b9050919050565b611da481611d89565b8114611daf57600080fd5b50565b600081359050611dc181611d9b565b92915050565b611dd081611aaa565b8114611ddb57600080fd5b50565b600081359050611ded81611dc7565b92915050565b60008060408385031215611e0a57611e09611a15565b5b6000611e1885828601611db2565b9250506020611e2985828601611dde565b9150509250929050565b611e3c81611d89565b82525050565b600081519050919050565b600082825260208201905092915050565b60005b83811015611e7c578082015181840152602081019050611e61565b83811115611e8b576000848401525b50505050565b6000611e9c82611e42565b611ea68185611e4d565b9350611eb6818560208601611e5e565b611ebf81611ae8565b840191505092915050565b600081519050919050565b600082825260208201905092915050565b6000819050602082019050919050565b7f4e487b7100000000000000000000000000000000000000000000000000000000600052602160045260246000fd5b60088110611f3657611f35611ef6565b5b50565b6000819050611f4782611f25565b919050565b6000611f5782611f39565b9050919050565b611f6781611f4c565b82525050565b6000611f798383611f5e565b60208301905092915050565b6000602082019050919050565b6000611f9d82611eca565b611fa78185611ed5565b9350611fb283611ee6565b8060005b83811015611fe3578151611fca8882611f6d565b9750611fd583611f85565b925050600181019050611fb6565b5085935050505092915050565b60008115159050919050565b61200581611ff0565b82525050565b60006080830160008301516120236000860182611e33565b506020830151848203602086015261203b8282611e91565b915050604083015184820360408601526120558282611f92565b915050606083015161206a6060860182611ffc565b508091505092915050565b6000602082019050818103600083015261208f818461200b565b905092915050565b600067ffffffffffffffff8211156120b2576120b1611af9565b5b602082029050602081019050919050565b60006120d66120d184612097565b611b59565b905080838252602082019050602084028301858111156120f9576120f8611c50565b5b835b81811015612122578061210e8882611db2565b8452602084019350506020810190506120fb565b5050509392505050565b600082601f83011261214157612140611ade565b5b81356121518482602086016120c3565b91505092915050565b60008060006060848603121561217357612172611a15565b5b600061218186828701611db2565b935050602084013567ffffffffffffffff8111156121a2576121a1611a1a565b5b6121ae8682870161212c565b92505060406121bf86828701611dde565b9150509250925092565b6000602082840312156121df576121de611a15565b5b60006121ed84828501611db2565b91505092915050565b600081519050919050565b600082825260208201905092915050565b6000819050602082019050919050565b600061222e8383611e33565b60208301905092915050565b6000602082019050919050565b6000612252826121f6565b61225c8185612201565b935061226783612212565b8060005b8381101561229857815161227f8882612222565b975061228a8361223a565b92505060018101905061226b565b5085935050505092915050565b600060208201905081810360008301526122bf8184612247565b905092915050565b6122d081611d89565b82525050565b600082825260208201905092915050565b60006122f282611e42565b6122fc81856122d6565b935061230c818560208601611e5e565b61231581611ae8565b840191505092915050565b600082825260208201905092915050565b600061233c82611eca565b6123468185612320565b935061235183611ee6565b8060005b838110156123825781516123698882611f6d565b975061237483611f85565b925050600181019050612355565b5085935050505092915050565b61239881611ff0565b82525050565b60006080820190506123b360008301876122c7565b81810360208301526123c581866122e7565b905081810360408301526123d98185612331565b90506123e8606083018461238f565b95945050505050565b60006040820190506124066000830185611ab4565b61241360208301846122c7565b9392505050565b7f4d6574686f6420617661696c61626c65206f6e6c7920746f2074686520746f2060008201527f74686520757365722074686174206465706c6f7965642074686520636f6e747260208201527f6163740000000000000000000000000000000000000000000000000000000000604082015250565b600061249c6043836122d6565b91506124a78261241a565b606082019050919050565b600060208201905081810360008301526124cb8161248f565b9050919050565b7f5468652041646472657373206973206e6f7420617574686f72697a6564206d6160008201527f6e61676572206164647265737300000000000000000000000000000000000000602082015250565b600061252e602d836122d6565b9150612539826124d2565b604082019050919050565b6000602082019050818103600083015261255d81612521565b9050919050565b7f4e487b7100000000000000000000000000000000000000000000000000000000600052603260045260246000fd5b7f4e487b7100000000000000000000000000000000000000000000000000000000600052601160045260246000fd5b60006125cd82611aaa565b91507fffffffffffffffffffffffffffffffffffffffffffffffffffffffffffffffff82036125ff576125fe612593565b5b600182019050919050565b7f546865206164647265737320616464656420746f2074686520636f6e7472616360008201527f74206265666f7265210000000000000000000000000000000000000000000000602082015250565b60006126666029836122d6565b91506126718261260a565b604082019050919050565b6000602082019050818103600083015261269581612659565b9050919050565b60008160001c9050919050565b600073ffffffffffffffffffffffffffffffffffffffff82169050919050565b60006126dc6126d78361269c565b6126a9565b9050919050565b7f4e487b7100000000000000000000000000000000000000000000000000000000600052602260045260246000fd5b6000600282049050600182168061272a57607f821691505b60208210810361273d5761273c6126e3565b5b50919050565b60008190508160005260206000209050919050565b6000815461276581612712565b61276f8186611e4d565b9450600182166000811461278a576001811461279c576127cf565b60ff19831686526020860193506127cf565b6127a585612743565b60005b838110156127c7578154818901526001820191506020810190506127a8565b808801955050505b50505092915050565b600081549050919050565b60008190508160005260206000209050919050565b600060ff82169050919050565b60006128186128138361269c565b6127f8565b9050919050565b60008160081c9050919050565b600061283f61283a8361281f565b6127f8565b9050919050565b60008160101c9050919050565b600061286661286183612846565b6127f8565b9050919050565b60008160181c9050919050565b600061288d6128888361286d565b6127f8565b9050919050565b60008160201c9050919050565b60006128b46128af83612894565b6127f8565b9050919050565b60008160281c9050919050565b60006128db6128d6836128bb565b6127f8565b9050919050565b60008160301c9050919050565b60006129026128fd836128e2565b6127f8565b9050919050565b60008160381c9050919050565b600061292961292483612909565b6127f8565b9050919050565b60008160401c9050919050565b600061295061294b83612930565b6127f8565b9050919050565b60008160481c9050919050565b600061297761297283612957565b6127f8565b9050919050565b60008160501c9050919050565b600061299e6129998361297e565b6127f8565b9050919050565b60008160581c9050919050565b60006129c56129c0836129a5565b6127f8565b9050919050565b60008160601c9050919050565b60006129ec6129e7836129cc565b6127f8565b9050919050565b60008160681c9050919050565b6000612a13612a0e836129f3565b6127f8565b9050919050565b60008160701c9050919050565b6000612a3a612a3583612a1a565b6127f8565b9050919050565b60008160781c9050919050565b6000612a61612a5c83612a41565b6127f8565b9050919050565b60008160801c9050919050565b6000612a88612a8383612a68565b6127f8565b9050919050565b60008160881c9050919050565b6000612aaf612aaa83612a8f565b6127f8565b9050919050565b60008160901c9050919050565b6000612ad6612ad183612ab6565b6127f8565b9050919050565b60008160981c9050919050565b6000612afd612af883612add565b6127f8565b9050919050565b60008160a01c9050919050565b6000612b24612b1f83612b04565b6127f8565b9050919050565b60008160a81c9050919050565b6000612b4b612b4683612b2b565b6127f8565b9050919050565b60008160b01c9050919050565b6000612b72612b6d83612b52565b6127f8565b9050919050565b60008160b81c9050919050565b6000612b99612b9483612b79565b6127f8565b9050919050565b60008160c01c9050919050565b6000612bc0612bbb83612ba0565b6127f8565b9050919050565b60008160c81c9050919050565b6000612be7612be283612bc7565b6127f8565b9050919050565b60008160d01c9050919050565b6000612c0e612c0983612bee565b6127f8565b9050919050565b60008160d81c9050919050565b6000612c35612c3083612c15565b6127f8565b9050919050565b60008160e01c9050919050565b6000612c5c612c5783612c3c565b6127f8565b9050919050565b60008160e81c9050919050565b6000612c83612c7e83612c63565b6127f8565b9050919050565b60008160f01c9050919050565b6000612caa612ca583612c8a565b6127f8565b9050919050565b60008160f81c9050919050565b6000612cd1612ccc83612cb1565b6127f8565b9050919050565b6000612ce3826127d8565b612ced8185611ed5565b935083612cf9846127e3565b6000600115613026575b83600160200382011015613025578154612d2588612d2083612805565b611f5e565b602088019750612d3d88612d388361282c565b611f5e565b602088019750612d5588612d5083612853565b611f5e565b602088019750612d6d88612d688361287a565b611f5e565b602088019750612d8588612d80836128a1565b611f5e565b602088019750612d9d88612d98836128c8565b611f5e565b602088019750612db588612db0836128ef565b611f5e565b602088019750612dcd88612dc883612916565b611f5e565b602088019750612de588612de08361293d565b611f5e565b602088019750612dfd88612df883612964565b611f5e565b602088019750612e1588612e108361298b565b611f5e565b602088019750612e2d88612e28836129b2565b611f5e565b602088019750612e4588612e40836129d9565b611f5e565b602088019750612e5d88612e5883612a00565b611f5e565b602088019750612e7588612e7083612a27565b611f5e565b602088019750612e8d88612e8883612a4e565b611f5e565b602088019750612ea588612ea083612a75565b611f5e565b602088019750612ebd88612eb883612a9c565b611f5e565b602088019750612ed588612ed083612ac3565b611f5e565b602088019750612eed88612ee883612aea565b611f5e565b602088019750612f0588612f0083612b11565b611f5e565b602088019750612f1d88612f1883612b38565b611f5e565b602088019750612f3588612f3083612b5f565b611f5e565b602088019750612f4d88612f4883612b86565b611f5e565b602088019750612f6588612f6083612bad565b611f5e565b602088019750612f7d88612f7883612bd4565b611f5e565b602088019750612f9588612f9083612bfb565b611f5e565b602088019750612fad88612fa883612c22565b611f5e565b602088019750612fc588612fc083612c49565b611f5e565b602088019750612fdd88612fd883612c70565b611f5e565b602088019750612ff588612ff083612c97565b611f5e565b60208801975061300d8861300883612cbe565b611f5e565b60208801975060018301925050602081019050612d03565b5b60011561351157815484821015613056576130498861304483612805565b611f5e565b6020880197506001820191505b8482101561307d576130708861306b8361282c565b611f5e565b6020880197506001820191505b848210156130a4576130978861309283612853565b611f5e565b6020880197506001820191505b848210156130cb576130be886130b98361287a565b611f5e565b6020880197506001820191505b848210156130f2576130e5886130e0836128a1565b611f5e565b6020880197506001820191505b848210156131195761310c88613107836128c8565b611f5e565b6020880197506001820191505b84821015613140576131338861312e836128ef565b611f5e565b6020880197506001820191505b848210156131675761315a8861315583612916565b611f5e565b6020880197506001820191505b8482101561318e576131818861317c8361293d565b611f5e565b6020880197506001820191505b848210156131b5576131a8886131a383612964565b611f5e565b6020880197506001820191505b848210156131dc576131cf886131ca8361298b565b611f5e565b6020880197506001820191505b84821015613203576131f6886131f1836129b2565b611f5e565b6020880197506001820191505b8482101561322a5761321d88613218836129d9565b611f5e565b6020880197506001820191505b84821015613251576132448861323f83612a00565b611f5e565b6020880197506001820191505b848210156132785761326b8861326683612a27565b611f5e565b6020880197506001820191505b8482101561329f576132928861328d83612a4e565b611f5e565b6020880197506001820191505b848210156132c6576132b9886132b483612a75565b611f5e565b6020880197506001820191505b848210156132ed576132e0886132db83612a9c565b611f5e565b6020880197506001820191505b84821015613314576133078861330283612ac3565b611f5e565b6020880197506001820191505b8482101561333b5761332e8861332983612aea565b611f5e565b6020880197506001820191505b84821015613362576133558861335083612b11565b611f5e565b6020880197506001820191505b848210156133895761337c8861337783612b38565b611f5e565b6020880197506001820191505b848210156133b0576133a38861339e83612b5f565b611f5e565b6020880197506001820191505b848210156133d7576133ca886133c583612b86565b611f5e565b6020880197506001820191505b848210156133fe576133f1886133ec83612bad565b611f5e565b6020880197506001820191505b84821015613425576134188861341383612bd4565b611f5e565b6020880197506001820191505b8482101561344c5761343f8861343a83612bfb565b611f5e565b6020880197506001820191505b84821015613473576134668861346183612c22565b611f5e565b6020880197506001820191505b8482101561349a5761348d8861348883612c49565b611f5e565b6020880197506001820191505b848210156134c1576134b4886134af83612c70565b611f5e565b6020880197506001820191505b848210156134e8576134db886134d683612c97565b611f5e565b6020880197506001820191505b8482101561350f57613502886134fd83612cbe565b611f5e565b6020880197506001820191505b505b8694505050505092915050565b600060ff82169050919050565b600061353e6135398361269c565b61351e565b9050919050565b600060808301600080840154905061355c816126c9565b6135696000870182611e33565b506001840185830360208701526135808382612758565b9250506002840185830360408701526135998382612cd8565b925050600384015490506135ac8161352b565b6135b96060870182611ffc565b50819250505092915050565b600060208201905081810360008301526135df8184613545565b905092915050565b7f53656e64657220616e6420726563697069656e742063616e6e6f74206265207460008201527f68652073616d652e000000000000000000000000000000000000000000000000602082015250565b60006136436028836122d6565b915061364e826135e7565b604082019050919050565b6000602082019050818103600083015261367281613636565b9050919050565b7f5472616e7366657220616d6f756e742068617320746f2062652067726561746560008201527f72207468616e20302e0000000000000000000000000000000000000000000000602082015250565b60006136d56029836122d6565b91506136e082613679565b604082019050919050565b60006020820190508181036000830152613704816136c8565b9050919050565b7f43757272656e746c7920746865726520617265206e6f2061646472657373657360008201527f20696e2074686520636f6e747261637400000000000000000000000000000000602082015250565b60006137676030836122d6565b91506137728261370b565b604082019050919050565b600060208201905081810360008301526137968161375a565b9050919050565b7f44657374696e6174696f6e2061646472657320646964206e6f7420666f756e6460008201527f20696e2074686520636f6e747261637400000000000000000000000000000000602082015250565b60006137f96030836122d6565b91506138048261379d565b604082019050919050565b60006020820190508181036000830152613828816137ec565b9050919050565b7f4d61696e2070657263656e74616765206d757374206265747765656e2030207460008201527f6f20313030000000000000000000000000000000000000000000000000000000602082015250565b600061388b6025836122d6565b91506138968261382f565b604082019050919050565b600060208201905081810360008301526138ba8161387e565b9050919050565b60006138cc82611aaa565b91506138d783611aaa565b9250827fffffffffffffffffffffffffffffffffffffffffffffffffffffffffffffffff0382111561390c5761390b612593565b5b828201905092915050565b600061392282611aaa565b915061392d83611aaa565b9250817fffffffffffffffffffffffffffffffffffffffffffffffffffffffffffffffff048311821515161561396657613965612593565b5b828202905092915050565b7f4e487b7100000000000000000000000000000000000000000000000000000000600052601260045260246000fd5b60006139ab82611aaa565b91506139b683611aaa565b9250826139c6576139c5613971565b5b828204905092915050565b60006139dc82611aaa565b91506139e783611aaa565b9250828210156139fa576139f9612593565b5b82820390509291505056fea2646970667358221220a3bf96c0738aaa13350c4bd5c5e8e8c958ebfd18a7194d8df6a33ab7da258eee64736f6c634300080d0033",
  "immutableReferences": {},
  "source": "// SPDX-License-Identifier: MIT\r\npragma solidity ^0.8.13;\r\n\r\ncontract KriptoBagis{\r\n    address owner;\r\n    mapping (address => bool) isManagerAddress;\r\n    mapping (address => Organization) charityAddressInfos;\r\n    address payable[] charityAddresses;\r\n    uint256 totalDonationsAmount;\r\n    uint256 highestDonation;\r\n    address highestDonor;\r\n\r\n    enum OrganizationType{\r\n        Education, //0\r\n        Health, //1\r\n        Environment, //2\r\n        Religion, //3\r\n        CivilSociety, //4\r\n        International, //5\r\n        BigInternational, //6\r\n        GovernmentOrganized //7\r\n    }\r\n\r\n    struct Organization{\r\n        address payable organizationAddress;\r\n        string organizationName;\r\n        OrganizationType[] organizationTypes;\r\n        bool isValidated;\r\n    }\r\n\r\n    event OrganizationAdded(Organization _a);\r\n\r\n    /// Ba yapan adresi ve ba miktarn blockchain'de kaydeder\r\n    event Donation(\r\n        address indexed _donor,\r\n        uint256 _value,\r\n        address indexed _destinationAddress\r\n    );\r\n\r\n    // Contract'ta tanmlanan manager'n onaylad adresin bilgisini blockchian'de kaydeder\r\n    event AddressValidation(\r\n        address indexed _manager,\r\n        address indexed _validatedAddress\r\n    );\r\n\r\n    //contracta eklenen manager address bilgisi\r\n    event AddManager(\r\n        address indexed _managerAddress\r\n    );\r\n\r\n    //function getOrganization(address payable memory address) public returns ()\r\n    constructor(){\r\n        owner = msg.sender; //Contract' deploylayan kiinin kaydnn tutulmas\r\n        totalDonationsAmount = 0;\r\n        highestDonation = 0;\r\n    }\r\n\r\n\r\n    function addNewOrganization(string memory organizationName, OrganizationType[] memory organizationTypes) CheckNewCharityAddress(payable(msg.sender)) public {\r\n        charityAddressInfos[msg.sender] = Organization({\r\n            organizationAddress: payable(msg.sender),\r\n            organizationName: organizationName,\r\n            organizationTypes: organizationTypes,\r\n            isValidated: false\r\n        });\r\n        charityAddresses.push(payable(msg.sender));\r\n        emit OrganizationAdded(charityAddressInfos[msg.sender]);\r\n    }\r\n\r\n    /// Btn ba adreslerini dndrr\r\n    /// @return charityAddresses\r\n    function getAddresses() public view returns (address payable[] memory) {\r\n        return charityAddresses;\r\n    }\r\n\r\n    function getAddress() public view returns(Organization memory){ //Kaldrlabilir\r\n        return charityAddressInfos[msg.sender];\r\n    }\r\n\r\n    \r\n    function getAddressInfos(address payable charityAddress) public view returns (address payable, string memory, OrganizationType[] memory, bool)\r\n    {\r\n        return (charityAddress, charityAddressInfos[charityAddress].organizationName, charityAddressInfos[charityAddress].organizationTypes, charityAddressInfos[charityAddress].isValidated);\r\n    }\r\n      \r\n\r\n    //Contract' deploylayan adresin dorulanmas iin\r\n    modifier restrictToOwner() {\r\n        require(msg.sender == owner, 'Method available only to the to the user that deployed the contract');\r\n        _;\r\n    }\r\n\r\n    //Organizasyon czdanlarn dorulayacak adreslerin yetkili olup olmadn kontrol eder\r\n    modifier isManager(){\r\n        require(isManagerAddress[msg.sender] || msg.sender == owner,'The Address is not authorized manager address');\r\n        _;\r\n    }\r\n\r\n    modifier CheckNewCharityAddress(address payable newAddress){\r\n        bool addresNotFound = true;\r\n        for(uint i=0 ; i < charityAddresses.length; i++){\r\n            if(charityAddresses[i] == newAddress){\r\n                addresNotFound = false;\r\n            }\r\n        }\r\n        require(addresNotFound, 'The address added to the contract before!');\r\n        _;\r\n    }\r\n\r\n    //Ba yaplacak adres daha nce contract'a kaydedildi mi?\r\n    modifier checkCharityAddress(address payable destinationAddress) {\r\n        require(charityAddresses.length > 0, 'Currently there are no addresses in the contract');\r\n        bool addresFound = false;\r\n        for(uint i=0 ; i < charityAddresses.length; i++){\r\n            if(charityAddresses[i] == destinationAddress){\r\n                addresFound = true;\r\n            }\r\n        }\r\n        require(addresFound, 'Destination addres did not found in the contract');\r\n        _;\r\n    }\r\n\r\n    //Ba yaplacak adres daha nce contract'a kaydedildi mi?\r\n    modifier checkOtherCharityAddresses(address payable[] memory otherDestinationAddresses) {\r\n        bool addresFound = false;\r\n        for(uint i=0 ; i < charityAddresses.length; i++){\r\n            for(uint j=0; j < otherDestinationAddresses.length; j++)\r\n                if(charityAddresses[i] == otherDestinationAddresses[j]){\r\n                    addresFound = true;\r\n                }\r\n        }\r\n        require(addresFound, 'Destination addres did not found in the contract');\r\n        _;\r\n    }\r\n\r\n\r\n    //Ba yapan kii kendi adresine ba yapamaz\r\n    modifier validateDestination(address payable destinationAddress) {\r\n        require(msg.sender != destinationAddress, 'Sender and recipient cannot be the same.');\r\n        _;\r\n    }\r\n\r\n    //// Validates that the charity index number provided is a valid one.\r\n    ///\r\n    /// @param charityIndex The target charity index to validate. Indexes start from 0 and increment by 1.\r\n    modifier validateCharity(uint256 charityIndex) {\r\n        require(charityIndex <= charityAddresses.length - 1, 'Invalid charity index.');\r\n        _;\r\n    }\r\n    \r\n    /// Validates that the amount to transfer is not zero.\r\n    modifier validateTransferAmount() {\r\n        require(msg.value > 0, 'Transfer amount has to be greater than 0.');\r\n        _;\r\n    }\r\n\r\n     /// Validates that the donated amount is within acceptable limits.\r\n    ///\r\n    /// @param donationAmount The target donation amount.\r\n    /// @dev donated amount >= 1% of the total transferred amount and <= 50% of the total transferred amount.\r\n    modifier validateDonationAmount(uint256 donationAmount) {\r\n        require(donationAmount >= msg.value / 100 && donationAmount <= msg.value / 2,\r\n            'Donation amount has to be from 1% to 50% of the total transferred amount');\r\n        _;\r\n    }\r\n\r\n    modifier validateDonationPercentage(uint256 mainPercentage) {\r\n        require(mainPercentage > 0 && mainPercentage <= 100,\r\n            'Main percentage must between 0 to 100');\r\n        _;\r\n    }\r\n\r\n    /// Parametre ile gelen yzdeyi ana adrese aktarr, \r\n    /// yzdenin geri kalanndaki miktar ise dier parametre ile gelen dier adresler arasnda bltrr\r\n    ///\r\n    /// @param destinationAddress Ana adres\r\n    /// @param otherAddresses Dier adresler\r\n    /// @param mainPercentage Ana adrese aktarlacak yzde\r\n    function deposit(address payable destinationAddress, address payable[] memory otherAddresses, uint256 mainPercentage) public \r\n    validateDestination(destinationAddress)\r\n    validateTransferAmount() \r\n    checkCharityAddress(destinationAddress) \r\n    checkOtherCharityAddresses(otherAddresses) \r\n    validateDonationPercentage(mainPercentage)  \r\n    payable {\r\n\r\n\r\n        uint256 donationAmount = (msg.value * mainPercentage) / 100 ;\r\n        uint256 actualDeposit = msg.value - donationAmount;\r\n        uint256 otherAddressAmount = actualDeposit / otherAddresses.length;\r\n\r\n        for(uint i=0; i< otherAddresses.length; i++){\r\n            otherAddresses[i].transfer(otherAddressAmount);\r\n        } \r\n        destinationAddress.transfer(donationAmount);\r\n\r\n        emit Donation(msg.sender, donationAmount, destinationAddress);\r\n\r\n        totalDonationsAmount += donationAmount;\r\n\r\n        if (donationAmount > highestDonation) {\r\n            highestDonation = donationAmount;\r\n            highestDonor = msg.sender;\r\n        }\r\n    }\r\n\r\n\r\n    /// Ana adrese ba yapar.\r\n    ///\r\n    /// @param destinationAddress Ana adres\r\n    /// @param mainPercentage Ana adrese aktarlacak yzde\r\n    function depositDirect(address payable destinationAddress,  uint256 mainPercentage) \r\n    validateDestination(destinationAddress)\r\n    validateTransferAmount() \r\n    checkCharityAddress(destinationAddress) \r\n    validateDonationPercentage(mainPercentage)  \r\n    external payable {\r\n\r\n\r\n        uint256 donationAmount = msg.value;\r\n\r\n        destinationAddress.transfer(donationAmount);\r\n\r\n        emit Donation(msg.sender, donationAmount, destinationAddress);\r\n\r\n        totalDonationsAmount += donationAmount;\r\n\r\n        if (donationAmount > highestDonation) {\r\n            highestDonation = donationAmount;\r\n            highestDonor = msg.sender;\r\n        }\r\n    }\r\n\r\n    // /// Parametre ile gelen yzdeyi ana adrese aktarr, \r\n    // /// yzdenin geri kalanndaki miktar ise parametre olarak gelen organizasyon tipindeki dier adreslere datr, SADECE dorulanm adreslere datr.\r\n    // ///\r\n    // /// @param destinationAddress Ana adres\r\n    // /// @param mainPercentage Ana adrese aktarlacak yzde\r\n    // /// @param organizationType Ban geri kalannn datm yaplacak organizasyon tipi\r\n    // function deposit(address payable destinationAddress, uint256 mainPercentage, OrganizationType organizationType) public \r\n    // validateDestination(destinationAddress)\r\n    // validateTransferAmount() \r\n    // checkCharityAddress(destinationAddress) \r\n    // validateDonationPercentage(mainPercentage)  \r\n    // payable {\r\n\r\n\r\n    //     uint256 donationAmount = (msg.value * mainPercentage) / 100 ;\r\n    //     uint256 actualDeposit = msg.value - donationAmount;\r\n\r\n    //     uint count = 0;\r\n    //     address payable[] memory tempArray;\r\n\r\n    //     for (uint i=0; i < charityAddresses.length; i++){\r\n    //         if(charityAddressInfos[charityAddresses[i]].organizationTypes[0] == organizationType \r\n    //         && isValidated[charityAddresses[i]]== true \r\n    //         && charityAddresses[i] != destinationAddress){\r\n    //             count++;\r\n    //             tempArray.push(charityAddresses[i]);\r\n    //         }\r\n    //     }\r\n\r\n    //     if(count > 0){\r\n    //         uint256 validatedAddressAmount = actualDeposit / count;\r\n\r\n    //         for(uint i=0; i< tempArray.length; i++){\r\n    //             tempArray[i].transfer(validatedAddressAmount);\r\n    //         } \r\n    //     }\r\n        \r\n    //     destinationAddress.transfer(donationAmount);\r\n\r\n    //     emit Donation(msg.sender, donationAmount, destinationAddress);\r\n\r\n    //     totalDonationsAmount += donationAmount;\r\n\r\n    //     if (donationAmount > highestDonation) {\r\n    //         highestDonation = donationAmount;\r\n    //         highestDonor = msg.sender;\r\n    //     }\r\n    // }\r\n\r\n    function validateCharityAddress(address payable validatingAddress)\r\n    isManager()\r\n    checkCharityAddress(validatingAddress) \r\n    public {\r\n        charityAddressInfos[validatingAddress].isValidated = true;\r\n        emit AddressValidation(msg.sender, validatingAddress);\r\n    }\r\n\r\n    function addManagerAddress(address managerAddress)\r\n    restrictToOwner()\r\n    isManager()\r\n    public {\r\n        isManagerAddress[managerAddress] = true;\r\n        emit AddManager(managerAddress);\r\n    }\r\n\r\n    /// Returns the total amount raised by all donations (in wei) towards any charity.\r\n    /// @return totalDonationsAmount\r\n    function getTotalDonationsAmount() public view returns (uint256) {\r\n        return totalDonationsAmount;\r\n    }\r\n\r\n    /// En yksek ba ve ba yapan dndrr\r\n    /// @return (highestDonation, highestDonor)\r\n    function getHighestDonation() public view restrictToOwner() returns (uint256, address payable)  {\r\n        return (highestDonation, payable(highestDonor));\r\n    }\r\n\r\n\r\n    // Contract' bir daha kullanlmamak zere blockchainden kaldrr\r\n    function destroy() public restrictToOwner() {\r\n        selfdestruct(payable(owner));\r\n    }\r\n}\r\n",
  "sourcePath": "C:\\Users\\alioz\\Documents\\ContractTests\\contracts\\Bagis.sol",
  "compiler": {
    "name": "solc",
    "version": "0.8.13+commit.abaa5c0e.Emscripten.clang"
  },
  "schemaVersion": "3.4.6",
  "updatedAt": "2022-06-28T21:57:37.045Z",
  "networkType": "ethereum",
  "devdoc": {
    "kind": "dev",
    "methods": {
      "deposit(address,address[],uint256)": {
        "params": {
          "destinationAddress": "Ana adres",
          "mainPercentage": "Ana adrese aktarlacak yzde",
          "otherAddresses": "Dier adresler"
        }
      },
      "depositDirect(address,uint256)": {
        "params": {
          "destinationAddress": "Ana adres",
          "mainPercentage": "Ana adrese aktarlacak yzde"
        }
      },
      "getAddresses()": {
        "returns": {
          "_0": "charityAddresses"
        }
      },
      "getHighestDonation()": {
        "returns": {
          "_0": "(highestDonation, highestDonor)"
        }
      },
      "getTotalDonationsAmount()": {
        "returns": {
          "_0": "totalDonationsAmount"
        }
      }
    },
    "version": 1
  },
  "userdoc": {
    "events": {
      "Donation(address,uint256,address)": {
        "notice": "Ba yapan adresi ve ba miktarn blockchain'de kaydeder"
      }
    },
    "kind": "user",
    "methods": {
      "deposit(address,address[],uint256)": {
        "notice": "Parametre ile gelen yzdeyi ana adrese aktarr,  yzdenin geri kalanndaki miktar ise dier parametre ile gelen dier adresler arasnda bltrr"
      },
      "depositDirect(address,uint256)": {
        "notice": "Ana adrese ba yapar."
      },
      "getAddresses()": {
        "notice": "Btn ba adreslerini dndrr"
      },
      "getHighestDonation()": {
        "notice": "En yksek ba ve ba yapan dndrr"
      },
      "getTotalDonationsAmount()": {
        "notice": "Returns the total amount raised by all donations (in wei) towards any charity."
      }
    },
    "version": 1
  }
}