{
  "contractName": "KriptoBagis",
  "abi": [
    {
      "inputs": [
        {
          "internalType": "address[]",
          "name": "addresses_",
          "type": "address[]"
        }
      ],
      "stateMutability": "nonpayable",
      "type": "constructor"
    },
    {
      "anonymous": false,
      "inputs": [
        {
          "indexed": true,
          "internalType": "address",
          "name": "_managerAddress",
          "type": "address"
        }
      ],
      "name": "AddManager",
      "type": "event"
    },
    {
      "anonymous": false,
      "inputs": [
        {
          "indexed": true,
          "internalType": "address",
          "name": "_manager",
          "type": "address"
        },
        {
          "indexed": true,
          "internalType": "address",
          "name": "_validatedAddress",
          "type": "address"
        }
      ],
      "name": "AddressValidation",
      "type": "event"
    },
    {
      "anonymous": false,
      "inputs": [
        {
          "indexed": true,
          "internalType": "address",
          "name": "_donor",
          "type": "address"
        },
        {
          "indexed": false,
          "internalType": "uint256",
          "name": "_value",
          "type": "uint256"
        },
        {
          "indexed": true,
          "internalType": "address",
          "name": "_destinationAddress",
          "type": "address"
        }
      ],
      "name": "Donation",
      "type": "event"
    },
    {
      "inputs": [
        {
          "internalType": "string",
          "name": "organizationName",
          "type": "string"
        },
        {
          "internalType": "enum KriptoBagis.OrganizationType[]",
          "name": "organizationTypes",
          "type": "uint8[]"
        }
      ],
      "name": "addNewOrganization",
      "outputs": [],
      "stateMutability": "nonpayable",
      "type": "function"
    },
    {
      "inputs": [],
      "name": "getAddresses",
      "outputs": [
        {
          "internalType": "address payable[]",
          "name": "",
          "type": "address[]"
        }
      ],
      "stateMutability": "view",
      "type": "function"
    },
    {
      "inputs": [
        {
          "internalType": "address payable",
          "name": "charityAddress",
          "type": "address"
        }
      ],
      "name": "getAddressInfos",
      "outputs": [
        {
          "internalType": "address payable",
          "name": "",
          "type": "address"
        },
        {
          "internalType": "string",
          "name": "",
          "type": "string"
        },
        {
          "internalType": "enum KriptoBagis.OrganizationType[]",
          "name": "",
          "type": "uint8[]"
        },
        {
          "internalType": "bool",
          "name": "",
          "type": "bool"
        }
      ],
      "stateMutability": "view",
      "type": "function"
    },
    {
      "inputs": [
        {
          "internalType": "address payable",
          "name": "destinationAddress",
          "type": "address"
        },
        {
          "internalType": "address payable[]",
          "name": "otherAddresses",
          "type": "address[]"
        },
        {
          "internalType": "uint256",
          "name": "mainPercentage",
          "type": "uint256"
        }
      ],
      "name": "deposit",
      "outputs": [],
      "stateMutability": "payable",
      "type": "function"
    },
    {
      "inputs": [
        {
          "internalType": "address payable",
          "name": "destinationAddress",
          "type": "address"
        },
        {
          "internalType": "uint256",
          "name": "mainPercentage",
          "type": "uint256"
        }
      ],
      "name": "deposit",
      "outputs": [],
      "stateMutability": "payable",
      "type": "function"
    },
    {
      "inputs": [
        {
          "internalType": "address payable",
          "name": "validatingAddress",
          "type": "address"
        }
      ],
      "name": "validateCharityAddress",
      "outputs": [],
      "stateMutability": "nonpayable",
      "type": "function"
    },
    {
      "inputs": [
        {
          "internalType": "address",
          "name": "managerAddress",
          "type": "address"
        }
      ],
      "name": "addManagerAddress",
      "outputs": [],
      "stateMutability": "nonpayable",
      "type": "function"
    },
    {
      "inputs": [],
      "name": "getTotalDonationsAmount",
      "outputs": [
        {
          "internalType": "uint256",
          "name": "",
          "type": "uint256"
        }
      ],
      "stateMutability": "view",
      "type": "function"
    },
    {
      "inputs": [],
      "name": "getHighestDonation",
      "outputs": [
        {
          "internalType": "uint256",
          "name": "",
          "type": "uint256"
        },
        {
          "internalType": "address payable",
          "name": "",
          "type": "address"
        }
      ],
      "stateMutability": "view",
      "type": "function"
    },
    {
      "inputs": [],
      "name": "destroy",
      "outputs": [],
      "stateMutability": "nonpayable",
      "type": "function"
    }
  ],
  "bytecode": "0x60806040523480156200001157600080fd5b5060405162002b8538038062002b858339818101604052810190620000379190620003db565b336000806101000a81548173ffffffffffffffffffffffffffffffffffffffff021916908373ffffffffffffffffffffffffffffffffffffffff16021790555080600590805190602001906200008f9291906200013f565b5060005b815181101562000127576001806000848481518110620000b857620000b76200042c565b5b602002602001015173ffffffffffffffffffffffffffffffffffffffff1673ffffffffffffffffffffffffffffffffffffffff16815260200190815260200160002060006101000a81548160ff02191690831515021790555080806200011e9062000494565b91505062000093565b506000600681905550600060078190555050620004e1565b828054828255906000526020600020908101928215620001bb579160200282015b82811115620001ba5782518260006101000a81548173ffffffffffffffffffffffffffffffffffffffff021916908373ffffffffffffffffffffffffffffffffffffffff1602179055509160200191906001019062000160565b5b509050620001ca9190620001ce565b5090565b5b80821115620001e9576000816000905550600101620001cf565b5090565b6000604051905090565b600080fd5b600080fd5b600080fd5b6000601f19601f8301169050919050565b7f4e487b7100000000000000000000000000000000000000000000000000000000600052604160045260246000fd5b620002518262000206565b810181811067ffffffffffffffff8211171562000273576200027262000217565b5b80604052505050565b600062000288620001ed565b905062000296828262000246565b919050565b600067ffffffffffffffff821115620002b957620002b862000217565b5b602082029050602081019050919050565b600080fd5b600073ffffffffffffffffffffffffffffffffffffffff82169050919050565b6000620002fc82620002cf565b9050919050565b6200030e81620002ef565b81146200031a57600080fd5b50565b6000815190506200032e8162000303565b92915050565b60006200034b62000345846200029b565b6200027c565b90508083825260208201905060208402830185811115620003715762000370620002ca565b5b835b818110156200039e57806200038988826200031d565b84526020840193505060208101905062000373565b5050509392505050565b600082601f830112620003c057620003bf62000201565b5b8151620003d284826020860162000334565b91505092915050565b600060208284031215620003f457620003f3620001f7565b5b600082015167ffffffffffffffff811115620004155762000414620001fc565b5b6200042384828501620003a8565b91505092915050565b7f4e487b7100000000000000000000000000000000000000000000000000000000600052603260045260246000fd5b7f4e487b7100000000000000000000000000000000000000000000000000000000600052601160045260246000fd5b6000819050919050565b6000620004a1826200048a565b91507fffffffffffffffffffffffffffffffffffffffffffffffffffffffffffffffff8203620004d657620004d56200045b565b5b600182019050919050565b61269480620004f16000396000f3fe6080604052600436106100915760003560e01c806383197ef01161005957806383197ef01461014b5780638e83a51314610162578063a39fac121461018b578063de56a296146101b6578063efb349af146101f657610091565b8063129009b814610096578063141b8809146100bf57806329b0f4f2146100ea57806341abfdc01461011357806347e7ef241461012f575b600080fd5b3480156100a257600080fd5b506100bd60048036038101906100b89190611839565b610222565b005b3480156100cb57600080fd5b506100d461042f565b6040516100e1919061187f565b60405180910390f35b3480156100f657600080fd5b50610111600480360381019061010c9190611acd565b610439565b005b61012d60048036038101906101289190611c72565b61072e565b005b61014960048036038101906101449190611ce1565b610c07565b005b34801561015757600080fd5b50610160610f0c565b005b34801561016e57600080fd5b5061018960048036038101906101849190611d21565b610fd3565b005b34801561019757600080fd5b506101a0611248565b6040516101ad9190611e0c565b60405180910390f35b3480156101c257600080fd5b506101dd60048036038101906101d89190611d21565b6112d6565b6040516101ed9493929190612006565b60405180910390f35b34801561020257600080fd5b5061020b6115af565b604051610219929190612059565b60405180910390f35b60008054906101000a900473ffffffffffffffffffffffffffffffffffffffff1673ffffffffffffffffffffffffffffffffffffffff163373ffffffffffffffffffffffffffffffffffffffff16146102b0576040517f08c379a00000000000000000000000000000000000000000000000000000000081526004016102a79061211a565b60405180910390fd5b600160003373ffffffffffffffffffffffffffffffffffffffff1673ffffffffffffffffffffffffffffffffffffffff16815260200190815260200160002060009054906101000a900460ff1680610353575060008054906101000a900473ffffffffffffffffffffffffffffffffffffffff1673ffffffffffffffffffffffffffffffffffffffff163373ffffffffffffffffffffffffffffffffffffffff16145b610392576040517f08c379a0000000000000000000000000000000000000000000000000000000008152600401610389906121ac565b60405180910390fd5b60018060008373ffffffffffffffffffffffffffffffffffffffff1673ffffffffffffffffffffffffffffffffffffffff16815260200190815260200160002060006101000a81548160ff0219169083151502179055508073ffffffffffffffffffffffffffffffffffffffff167f3630096a7f9a158ab9fae41e86bfe31fd2202585a26a9668242672566dae028d60405160405180910390a250565b6000600654905090565b6000600260003373ffffffffffffffffffffffffffffffffffffffff1673ffffffffffffffffffffffffffffffffffffffff168152602001908152602001600020604051806040016040529081600082018054610495906121fb565b80601f01602080910402602001604051908101604052809291908181526020018280546104c1906121fb565b801561050e5780601f106104e35761010080835404028352916020019161050e565b820191906000526020600020905b8154815290600101906020018083116104f157829003601f168201915b505050505081526020016001820180548060200260200160405190810160405280929190818152602001828054801561059b57602002820191906000526020600020906000905b82829054906101000a900460ff16600781111561057557610574611ef1565b5b815260200190600101906020826000010492830192600103820291508084116105555790505b5050505050815250509050828160000181905250818160200181905250604051806040016040528084815260200183815250600260003373ffffffffffffffffffffffffffffffffffffffff1673ffffffffffffffffffffffffffffffffffffffff168152602001908152602001600020600082015181600001908051906020019061062892919061166e565b5060208201518160010190805190602001906106459291906116f4565b509050506004339080600181540180825580915050600190039060005260206000200160009091909190916101000a81548173ffffffffffffffffffffffffffffffffffffffff021916908373ffffffffffffffffffffffffffffffffffffffff16021790555080600260003373ffffffffffffffffffffffffffffffffffffffff1673ffffffffffffffffffffffffffffffffffffffff168152602001908152602001600020600082015181600001908051906020019061070892919061166e565b5060208201518160010190805190602001906107259291906116f4565b50905050505050565b828073ffffffffffffffffffffffffffffffffffffffff163373ffffffffffffffffffffffffffffffffffffffff160361079d576040517f08c379a00000000000000000000000000000000000000000000000000000000081526004016107949061229e565b60405180910390fd5b600034116107e0576040517f08c379a00000000000000000000000000000000000000000000000000000000081526004016107d790612330565b60405180910390fd5b836000805b60048054905081101561087b578273ffffffffffffffffffffffffffffffffffffffff166004828154811061081d5761081c612350565b5b9060005260206000200160009054906101000a900473ffffffffffffffffffffffffffffffffffffffff1673ffffffffffffffffffffffffffffffffffffffff160361086857600191505b8080610873906123ae565b9150506107e5565b50806108bc576040517f08c379a00000000000000000000000000000000000000000000000000000000081526004016108b390612468565b60405180910390fd5b846000805b6004805490508110156109915760005b835181101561097d578381815181106108ed576108ec612350565b5b602002602001015173ffffffffffffffffffffffffffffffffffffffff166004838154811061091f5761091e612350565b5b9060005260206000200160009054906101000a900473ffffffffffffffffffffffffffffffffffffffff1673ffffffffffffffffffffffffffffffffffffffff160361096a57600192505b8080610975906123ae565b9150506108d1565b508080610989906123ae565b9150506108c1565b50806109d2576040517f08c379a00000000000000000000000000000000000000000000000000000000081526004016109c990612468565b60405180910390fd5b856000811180156109e4575060648111155b610a23576040517f08c379a0000000000000000000000000000000000000000000000000000000008152600401610a1a906124fa565b60405180910390fd5b600060648834610a33919061251a565b610a3d91906125a3565b905060008134610a4d91906125d4565b905060008a5182610a5e91906125a3565b905060005b8b51811015610ae0578b8181518110610a7f57610a7e612350565b5b602002602001015173ffffffffffffffffffffffffffffffffffffffff166108fc839081150290604051600060405180830381858888f19350505050158015610acc573d6000803e3d6000fd5b508080610ad8906123ae565b915050610a63565b508b73ffffffffffffffffffffffffffffffffffffffff166108fc849081150290604051600060405180830381858888f19350505050158015610b27573d6000803e3d6000fd5b508b73ffffffffffffffffffffffffffffffffffffffff163373ffffffffffffffffffffffffffffffffffffffff167fc0bceae83bc3bc42cc5b2ff5d9c6f6895bbb7b727b9a086a371689055789aabe85604051610b85919061187f565b60405180910390a38260066000828254610b9f9190612608565b92505081905550600754831115610bf9578260078190555033600860006101000a81548173ffffffffffffffffffffffffffffffffffffffff021916908373ffffffffffffffffffffffffffffffffffffffff1602179055505b505050505050505050505050565b818073ffffffffffffffffffffffffffffffffffffffff163373ffffffffffffffffffffffffffffffffffffffff1603610c76576040517f08c379a0000000000000000000000000000000000000000000000000000000008152600401610c6d9061229e565b60405180910390fd5b60003411610cb9576040517f08c379a0000000000000000000000000000000000000000000000000000000008152600401610cb090612330565b60405180910390fd5b826000805b600480549050811015610d54578273ffffffffffffffffffffffffffffffffffffffff1660048281548110610cf657610cf5612350565b5b9060005260206000200160009054906101000a900473ffffffffffffffffffffffffffffffffffffffff1673ffffffffffffffffffffffffffffffffffffffff1603610d4157600191505b8080610d4c906123ae565b915050610cbe565b5080610d95576040517f08c379a0000000000000000000000000000000000000000000000000000000008152600401610d8c90612468565b60405180910390fd5b83600081118015610da7575060648111155b610de6576040517f08c379a0000000000000000000000000000000000000000000000000000000008152600401610ddd906124fa565b60405180910390fd5b60003490508673ffffffffffffffffffffffffffffffffffffffff166108fc829081150290604051600060405180830381858888f19350505050158015610e31573d6000803e3d6000fd5b508673ffffffffffffffffffffffffffffffffffffffff163373ffffffffffffffffffffffffffffffffffffffff167fc0bceae83bc3bc42cc5b2ff5d9c6f6895bbb7b727b9a086a371689055789aabe83604051610e8f919061187f565b60405180910390a38060066000828254610ea99190612608565b92505081905550600754811115610f03578060078190555033600860006101000a81548173ffffffffffffffffffffffffffffffffffffffff021916908373ffffffffffffffffffffffffffffffffffffffff1602179055505b50505050505050565b60008054906101000a900473ffffffffffffffffffffffffffffffffffffffff1673ffffffffffffffffffffffffffffffffffffffff163373ffffffffffffffffffffffffffffffffffffffff1614610f9a576040517f08c379a0000000000000000000000000000000000000000000000000000000008152600401610f919061211a565b60405180910390fd5b60008054906101000a900473ffffffffffffffffffffffffffffffffffffffff1673ffffffffffffffffffffffffffffffffffffffff16ff5b600160003373ffffffffffffffffffffffffffffffffffffffff1673ffffffffffffffffffffffffffffffffffffffff16815260200190815260200160002060009054906101000a900460ff1680611076575060008054906101000a900473ffffffffffffffffffffffffffffffffffffffff1673ffffffffffffffffffffffffffffffffffffffff163373ffffffffffffffffffffffffffffffffffffffff16145b6110b5576040517f08c379a00000000000000000000000000000000000000000000000000000000081526004016110ac906121ac565b60405180910390fd5b806000805b600480549050811015611150578273ffffffffffffffffffffffffffffffffffffffff16600482815481106110f2576110f1612350565b5b9060005260206000200160009054906101000a900473ffffffffffffffffffffffffffffffffffffffff1673ffffffffffffffffffffffffffffffffffffffff160361113d57600191505b8080611148906123ae565b9150506110ba565b5080611191576040517f08c379a000000000000000000000000000000000000000000000000000000000815260040161118890612468565b60405180910390fd5b6001600360008573ffffffffffffffffffffffffffffffffffffffff1673ffffffffffffffffffffffffffffffffffffffff16815260200190815260200160002060006101000a81548160ff0219169083151502179055508273ffffffffffffffffffffffffffffffffffffffff163373ffffffffffffffffffffffffffffffffffffffff167ff880befad2c8adef70e70928090f5097492cac381953be7c05fd142924a39ecd60405160405180910390a3505050565b606060048054806020026020016040519081016040528092919081815260200182805480156112cc57602002820191906000526020600020905b8160009054906101000a900473ffffffffffffffffffffffffffffffffffffffff1673ffffffffffffffffffffffffffffffffffffffff1681526020019060010190808311611282575b5050505050905090565b60006060806000846000805b600480549050811015611378578273ffffffffffffffffffffffffffffffffffffffff166004828154811061131a57611319612350565b5b9060005260206000200160009054906101000a900473ffffffffffffffffffffffffffffffffffffffff1673ffffffffffffffffffffffffffffffffffffffff160361136557600191505b8080611370906123ae565b9150506112e2565b50806113b9576040517f08c379a00000000000000000000000000000000000000000000000000000000081526004016113b090612468565b60405180910390fd5b86600260008973ffffffffffffffffffffffffffffffffffffffff1673ffffffffffffffffffffffffffffffffffffffff168152602001908152602001600020600001600260008a73ffffffffffffffffffffffffffffffffffffffff1673ffffffffffffffffffffffffffffffffffffffff168152602001908152602001600020600101600360008b73ffffffffffffffffffffffffffffffffffffffff1673ffffffffffffffffffffffffffffffffffffffff16815260200190815260200160002060009054906101000a900460ff16828054611497906121fb565b80601f01602080910402602001604051908101604052809291908181526020018280546114c3906121fb565b80156115105780601f106114e557610100808354040283529160200191611510565b820191906000526020600020905b8154815290600101906020018083116114f357829003601f168201915b505050505092508180548060200260200160405190810160405280929190818152602001828054801561159757602002820191906000526020600020906000905b82829054906101000a900460ff16600781111561157157611570611ef1565b5b815260200190600101906020826000010492830192600103820291508084116115515790505b50505050509150955095509550955050509193509193565b60008060008054906101000a900473ffffffffffffffffffffffffffffffffffffffff1673ffffffffffffffffffffffffffffffffffffffff163373ffffffffffffffffffffffffffffffffffffffff1614611640576040517f08c379a00000000000000000000000000000000000000000000000000000000081526004016116379061211a565b60405180910390fd5b600754600860009054906101000a900473ffffffffffffffffffffffffffffffffffffffff16915091509091565b82805461167a906121fb565b90600052602060002090601f01602090048101928261169c57600085556116e3565b82601f106116b557805160ff19168380011785556116e3565b828001600101855582156116e3579182015b828111156116e25782518255916020019190600101906116c7565b5b5090506116f091906117aa565b5090565b82805482825590600052602060002090601f016020900481019282156117995791602002820160005b8382111561176a57835183826101000a81548160ff0219169083600781111561174957611748611ef1565b5b0217905550926020019260010160208160000104928301926001030261171d565b80156117975782816101000a81549060ff021916905560010160208160000104928301926001030261176a565b505b5090506117a691906117aa565b5090565b5b808211156117c35760008160009055506001016117ab565b5090565b6000604051905090565b600080fd5b600080fd5b600073ffffffffffffffffffffffffffffffffffffffff82169050919050565b6000611806826117db565b9050919050565b611816816117fb565b811461182157600080fd5b50565b6000813590506118338161180d565b92915050565b60006020828403121561184f5761184e6117d1565b5b600061185d84828501611824565b91505092915050565b6000819050919050565b61187981611866565b82525050565b60006020820190506118946000830184611870565b92915050565b600080fd5b600080fd5b6000601f19601f8301169050919050565b7f4e487b7100000000000000000000000000000000000000000000000000000000600052604160045260246000fd5b6118ed826118a4565b810181811067ffffffffffffffff8211171561190c5761190b6118b5565b5b80604052505050565b600061191f6117c7565b905061192b82826118e4565b919050565b600067ffffffffffffffff82111561194b5761194a6118b5565b5b611954826118a4565b9050602081019050919050565b82818337600083830152505050565b600061198361197e84611930565b611915565b90508281526020810184848401111561199f5761199e61189f565b5b6119aa848285611961565b509392505050565b600082601f8301126119c7576119c661189a565b5b81356119d7848260208601611970565b91505092915050565b600067ffffffffffffffff8211156119fb576119fa6118b5565b5b602082029050602081019050919050565b600080fd5b60088110611a1e57600080fd5b50565b600081359050611a3081611a11565b92915050565b6000611a49611a44846119e0565b611915565b90508083825260208201905060208402830185811115611a6c57611a6b611a0c565b5b835b81811015611a955780611a818882611a21565b845260208401935050602081019050611a6e565b5050509392505050565b600082601f830112611ab457611ab361189a565b5b8135611ac4848260208601611a36565b91505092915050565b60008060408385031215611ae457611ae36117d1565b5b600083013567ffffffffffffffff811115611b0257611b016117d6565b5b611b0e858286016119b2565b925050602083013567ffffffffffffffff811115611b2f57611b2e6117d6565b5b611b3b85828601611a9f565b9150509250929050565b6000611b50826117db565b9050919050565b611b6081611b45565b8114611b6b57600080fd5b50565b600081359050611b7d81611b57565b92915050565b600067ffffffffffffffff821115611b9e57611b9d6118b5565b5b602082029050602081019050919050565b6000611bc2611bbd84611b83565b611915565b90508083825260208201905060208402830185811115611be557611be4611a0c565b5b835b81811015611c0e5780611bfa8882611b6e565b845260208401935050602081019050611be7565b5050509392505050565b600082601f830112611c2d57611c2c61189a565b5b8135611c3d848260208601611baf565b91505092915050565b611c4f81611866565b8114611c5a57600080fd5b50565b600081359050611c6c81611c46565b92915050565b600080600060608486031215611c8b57611c8a6117d1565b5b6000611c9986828701611b6e565b935050602084013567ffffffffffffffff811115611cba57611cb96117d6565b5b611cc686828701611c18565b9250506040611cd786828701611c5d565b9150509250925092565b60008060408385031215611cf857611cf76117d1565b5b6000611d0685828601611b6e565b9250506020611d1785828601611c5d565b9150509250929050565b600060208284031215611d3757611d366117d1565b5b6000611d4584828501611b6e565b91505092915050565b600081519050919050565b600082825260208201905092915050565b6000819050602082019050919050565b611d8381611b45565b82525050565b6000611d958383611d7a565b60208301905092915050565b6000602082019050919050565b6000611db982611d4e565b611dc38185611d59565b9350611dce83611d6a565b8060005b83811015611dff578151611de68882611d89565b9750611df183611da1565b925050600181019050611dd2565b5085935050505092915050565b60006020820190508181036000830152611e268184611dae565b905092915050565b611e3781611b45565b82525050565b600081519050919050565b600082825260208201905092915050565b60005b83811015611e77578082015181840152602081019050611e5c565b83811115611e86576000848401525b50505050565b6000611e9782611e3d565b611ea18185611e48565b9350611eb1818560208601611e59565b611eba816118a4565b840191505092915050565b600081519050919050565b600082825260208201905092915050565b6000819050602082019050919050565b7f4e487b7100000000000000000000000000000000000000000000000000000000600052602160045260246000fd5b60088110611f3157611f30611ef1565b5b50565b6000819050611f4282611f20565b919050565b6000611f5282611f34565b9050919050565b611f6281611f47565b82525050565b6000611f748383611f59565b60208301905092915050565b6000602082019050919050565b6000611f9882611ec5565b611fa28185611ed0565b9350611fad83611ee1565b8060005b83811015611fde578151611fc58882611f68565b9750611fd083611f80565b925050600181019050611fb1565b5085935050505092915050565b60008115159050919050565b61200081611feb565b82525050565b600060808201905061201b6000830187611e2e565b818103602083015261202d8186611e8c565b905081810360408301526120418185611f8d565b90506120506060830184611ff7565b95945050505050565b600060408201905061206e6000830185611870565b61207b6020830184611e2e565b9392505050565b7f4d6574686f6420617661696c61626c65206f6e6c7920746f2074686520746f2060008201527f74686520757365722074686174206465706c6f7965642074686520636f6e747260208201527f6163740000000000000000000000000000000000000000000000000000000000604082015250565b6000612104604383611e48565b915061210f82612082565b606082019050919050565b60006020820190508181036000830152612133816120f7565b9050919050565b7f5468652041646472657373206973206e6f7420617574686f72697a6564206d6160008201527f6e61676572206164647265737300000000000000000000000000000000000000602082015250565b6000612196602d83611e48565b91506121a18261213a565b604082019050919050565b600060208201905081810360008301526121c581612189565b9050919050565b7f4e487b7100000000000000000000000000000000000000000000000000000000600052602260045260246000fd5b6000600282049050600182168061221357607f821691505b602082108103612226576122256121cc565b5b50919050565b7f53656e64657220616e6420726563697069656e742063616e6e6f74206265207460008201527f68652073616d652e000000000000000000000000000000000000000000000000602082015250565b6000612288602883611e48565b91506122938261222c565b604082019050919050565b600060208201905081810360008301526122b78161227b565b9050919050565b7f5472616e7366657220616d6f756e742068617320746f2062652067726561746560008201527f72207468616e20302e0000000000000000000000000000000000000000000000602082015250565b600061231a602983611e48565b9150612325826122be565b604082019050919050565b600060208201905081810360008301526123498161230d565b9050919050565b7f4e487b7100000000000000000000000000000000000000000000000000000000600052603260045260246000fd5b7f4e487b7100000000000000000000000000000000000000000000000000000000600052601160045260246000fd5b60006123b982611866565b91507fffffffffffffffffffffffffffffffffffffffffffffffffffffffffffffffff82036123eb576123ea61237f565b5b600182019050919050565b7f44657374696e6174696f6e2061646472657320646964206e6f7420666f756e6460008201527f20696e2074686520636f6e747261637400000000000000000000000000000000602082015250565b6000612452603083611e48565b915061245d826123f6565b604082019050919050565b6000602082019050818103600083015261248181612445565b9050919050565b7f4d61696e2070657263656e74616765206d757374206265747765656e2030207460008201527f6f20313030000000000000000000000000000000000000000000000000000000602082015250565b60006124e4602583611e48565b91506124ef82612488565b604082019050919050565b60006020820190508181036000830152612513816124d7565b9050919050565b600061252582611866565b915061253083611866565b9250817fffffffffffffffffffffffffffffffffffffffffffffffffffffffffffffffff04831182151516156125695761256861237f565b5b828202905092915050565b7f4e487b7100000000000000000000000000000000000000000000000000000000600052601260045260246000fd5b60006125ae82611866565b91506125b983611866565b9250826125c9576125c8612574565b5b828204905092915050565b60006125df82611866565b91506125ea83611866565b9250828210156125fd576125fc61237f565b5b828203905092915050565b600061261382611866565b915061261e83611866565b9250827fffffffffffffffffffffffffffffffffffffffffffffffffffffffffffffffff038211156126535761265261237f565b5b82820190509291505056fea2646970667358221220a79028f7f9d4e823fc5764c765ad06163a387744296519f5b439ddc46ee49efc64736f6c634300080d0033",
  "immutableReferences": {},
  "source": "// SPDX-License-Identifier: MIT\r\npragma solidity >=0.5.0 <0.9.0;\r\n\r\ncontract KriptoBagis{\r\n    address owner;\r\n    mapping (address => bool) isManagerAddress;\r\n    mapping (address => Organization) charityAddressInfos;\r\n    mapping (address => bool) isValidated;\r\n    address payable[] charityAddresses;\r\n    address[] managerAddresses;\r\n    uint256 totalDonationsAmount;\r\n    uint256 highestDonation;\r\n    address highestDonor;\r\n\r\n    enum OrganizationType{\r\n        Education, //0\r\n        Health, //1\r\n        Environment, //2\r\n        Religion, //3\r\n        CivilSociety, //4\r\n        International, //5\r\n        BigInternational, //6\r\n        GovernmentOrganized //7\r\n    }\r\n\r\n    struct Organization{\r\n        string organizationName;\r\n        OrganizationType[] organizationTypes;\r\n    }\r\n\r\n\r\n    /// Ba yapan adresi ve ba miktarn blockchain'de kaydeder\r\n    event Donation(\r\n        address indexed _donor,\r\n        uint256 _value,\r\n        address indexed _destinationAddress\r\n    );\r\n\r\n    // Contract'ta tanmlanan manager'n onaylad adresin bilgisini blockchian'de kaydeder\r\n    event AddressValidation(\r\n        address indexed _manager,\r\n        address indexed _validatedAddress\r\n    );\r\n\r\n    //contracta eklenen manager address bilgisi\r\n    event AddManager(\r\n        address indexed _managerAddress\r\n    );\r\n\r\n    //function getOrganization(address payable memory address) public returns ()\r\n    constructor(address[] memory addresses_){\r\n        owner = msg.sender; //Contract' deploylayan kiinin kaydnn tutulmas\r\n        managerAddresses = addresses_;\r\n        for(uint i=0; i < addresses_.length; i++){\r\n            isManagerAddress[addresses_[i]] = true;\r\n        }\r\n        totalDonationsAmount = 0;\r\n        highestDonation = 0;\r\n    }\r\n\r\n\r\n    function addNewOrganization(string memory organizationName, OrganizationType[] memory organizationTypes) public {\r\n        //for(uint i=0; i < organizationTypes.length; i++){\r\n        //    require(organizationTypes[i] >= 0 && organizationTypes[i] <= 7, 'Organization Type is Not Valid, Valid range is between 0 and 7');\r\n        //}\r\n        Organization memory newOrganization = charityAddressInfos[msg.sender];\r\n\r\n        newOrganization.organizationName = organizationName;\r\n        newOrganization.organizationTypes = organizationTypes;\r\n\r\n        charityAddressInfos[msg.sender] = Organization({\r\n            organizationName: organizationName,\r\n            organizationTypes: organizationTypes\r\n        });\r\n        //charityAddresses.push(payable(msg.sender));\r\n\r\n        charityAddresses.push(payable(msg.sender));\r\n        charityAddressInfos[msg.sender] = newOrganization;\r\n    }\r\n\r\n    /// Btn ba adreslerini dndrr\r\n    /// @return charityAddresses\r\n    function getAddresses() public view returns (address payable[] memory) {\r\n        return charityAddresses;\r\n    }\r\n\r\n    \r\n    function getAddressInfos(address payable charityAddress) public checkCharityAddress(charityAddress) view returns (address payable, string memory, OrganizationType[] memory, bool)\r\n    {\r\n        return (charityAddress, charityAddressInfos[charityAddress].organizationName, charityAddressInfos[charityAddress].organizationTypes, isValidated[charityAddress]);\r\n    }\r\n      \r\n\r\n    //Contract' deploylayan adresin dorulanmas iin\r\n    modifier restrictToOwner() {\r\n        require(msg.sender == owner, 'Method available only to the to the user that deployed the contract');\r\n        _;\r\n    }\r\n\r\n    //Organizasyon czdanlarn dorulayacak adreslerin yetkili olup olmadn kontrol eder\r\n    modifier isManager(){\r\n        require(isManagerAddress[msg.sender] || msg.sender == owner,'The Address is not authorized manager address');\r\n        _;\r\n    }\r\n\r\n    //Ba yaplacak adres daha nce contract'a kaydedildi mi?\r\n    modifier checkCharityAddress(address payable destinationAddress) {\r\n        bool addresFound = false;\r\n        for(uint i=0 ; i < charityAddresses.length; i++){\r\n            if(charityAddresses[i] == destinationAddress){\r\n                addresFound = true;\r\n            }\r\n        }\r\n        require(addresFound, 'Destination addres did not found in the contract');\r\n        _;\r\n    }\r\n\r\n    //Ba yaplacak adres daha nce contract'a kaydedildi mi?\r\n    modifier checkOtherCharityAddresses(address payable[] memory otherDestinationAddresses) {\r\n        bool addresFound = false;\r\n        for(uint i=0 ; i < charityAddresses.length; i++){\r\n            for(uint j=0; j < otherDestinationAddresses.length; j++)\r\n                if(charityAddresses[i] == otherDestinationAddresses[j]){\r\n                    addresFound = true;\r\n                }\r\n        }\r\n        require(addresFound, 'Destination addres did not found in the contract');\r\n        _;\r\n    }\r\n\r\n\r\n    //Ba yapan kii kendi adresine ba yapamaz\r\n    modifier validateDestination(address payable destinationAddress) {\r\n        require(msg.sender != destinationAddress, 'Sender and recipient cannot be the same.');\r\n        _;\r\n    }\r\n\r\n    //// Validates that the charity index number provided is a valid one.\r\n    ///\r\n    /// @param charityIndex The target charity index to validate. Indexes start from 0 and increment by 1.\r\n    modifier validateCharity(uint256 charityIndex) {\r\n        require(charityIndex <= charityAddresses.length - 1, 'Invalid charity index.');\r\n        _;\r\n    }\r\n    \r\n    /// Validates that the amount to transfer is not zero.\r\n    modifier validateTransferAmount() {\r\n        require(msg.value > 0, 'Transfer amount has to be greater than 0.');\r\n        _;\r\n    }\r\n\r\n     /// Validates that the donated amount is within acceptable limits.\r\n    ///\r\n    /// @param donationAmount The target donation amount.\r\n    /// @dev donated amount >= 1% of the total transferred amount and <= 50% of the total transferred amount.\r\n    modifier validateDonationAmount(uint256 donationAmount) {\r\n        require(donationAmount >= msg.value / 100 && donationAmount <= msg.value / 2,\r\n            'Donation amount has to be from 1% to 50% of the total transferred amount');\r\n        _;\r\n    }\r\n\r\n    modifier validateDonationPercentage(uint256 mainPercentage) {\r\n        require(mainPercentage > 0 && mainPercentage <= 100,\r\n            'Main percentage must between 0 to 100');\r\n        _;\r\n    }\r\n\r\n    /// Parametre ile gelen yzdeyi ana adrese aktarr, \r\n    /// yzdenin geri kalanndaki miktar ise dier parametre ile gelen dier adresler arasnda bltrr\r\n    ///\r\n    /// @param destinationAddress Ana adres\r\n    /// @param otherAddresses Dier adresler\r\n    /// @param mainPercentage Ana adrese aktarlacak yzde\r\n    function deposit(address payable destinationAddress, address payable[] memory otherAddresses, uint256 mainPercentage) public \r\n    validateDestination(destinationAddress)\r\n    validateTransferAmount() \r\n    checkCharityAddress(destinationAddress) \r\n    checkOtherCharityAddresses(otherAddresses) \r\n    validateDonationPercentage(mainPercentage)  \r\n    payable {\r\n\r\n\r\n        uint256 donationAmount = (msg.value * mainPercentage) / 100 ;\r\n        uint256 actualDeposit = msg.value - donationAmount;\r\n        uint256 otherAddressAmount = actualDeposit / otherAddresses.length;\r\n\r\n        for(uint i=0; i< otherAddresses.length; i++){\r\n            otherAddresses[i].transfer(otherAddressAmount);\r\n        } \r\n        destinationAddress.transfer(donationAmount);\r\n\r\n        emit Donation(msg.sender, donationAmount, destinationAddress);\r\n\r\n        totalDonationsAmount += donationAmount;\r\n\r\n        if (donationAmount > highestDonation) {\r\n            highestDonation = donationAmount;\r\n            highestDonor = msg.sender;\r\n        }\r\n    }\r\n\r\n\r\n    /// Ana adrese ba yapar.\r\n    ///\r\n    /// @param destinationAddress Ana adres\r\n    /// @param mainPercentage Ana adrese aktarlacak yzde\r\n    function deposit(address payable destinationAddress,  uint256 mainPercentage) public \r\n    validateDestination(destinationAddress)\r\n    validateTransferAmount() \r\n    checkCharityAddress(destinationAddress) \r\n    validateDonationPercentage(mainPercentage)  \r\n    payable {\r\n\r\n\r\n        uint256 donationAmount = msg.value ;\r\n\r\n        destinationAddress.transfer(donationAmount);\r\n\r\n        emit Donation(msg.sender, donationAmount, destinationAddress);\r\n\r\n        totalDonationsAmount += donationAmount;\r\n\r\n        if (donationAmount > highestDonation) {\r\n            highestDonation = donationAmount;\r\n            highestDonor = msg.sender;\r\n        }\r\n    }\r\n\r\n    // /// Parametre ile gelen yzdeyi ana adrese aktarr, \r\n    // /// yzdenin geri kalanndaki miktar ise parametre olarak gelen organizasyon tipindeki dier adreslere datr, SADECE dorulanm adreslere datr.\r\n    // ///\r\n    // /// @param destinationAddress Ana adres\r\n    // /// @param mainPercentage Ana adrese aktarlacak yzde\r\n    // /// @param organizationType Ban geri kalannn datm yaplacak organizasyon tipi\r\n    // function deposit(address payable destinationAddress, uint256 mainPercentage, OrganizationType organizationType) public \r\n    // validateDestination(destinationAddress)\r\n    // validateTransferAmount() \r\n    // checkCharityAddress(destinationAddress) \r\n    // validateDonationPercentage(mainPercentage)  \r\n    // payable {\r\n\r\n\r\n    //     uint256 donationAmount = (msg.value * mainPercentage) / 100 ;\r\n    //     uint256 actualDeposit = msg.value - donationAmount;\r\n\r\n    //     uint count = 0;\r\n    //     address payable[] memory tempArray;\r\n\r\n    //     for (uint i=0; i < charityAddresses.length; i++){\r\n    //         if(charityAddressInfos[charityAddresses[i]].organizationTypes[0] == organizationType \r\n    //         && isValidated[charityAddresses[i]]== true \r\n    //         && charityAddresses[i] != destinationAddress){\r\n    //             count++;\r\n    //             tempArray.push(charityAddresses[i]);\r\n    //         }\r\n    //     }\r\n\r\n    //     if(count > 0){\r\n    //         uint256 validatedAddressAmount = actualDeposit / count;\r\n\r\n    //         for(uint i=0; i< tempArray.length; i++){\r\n    //             tempArray[i].transfer(validatedAddressAmount);\r\n    //         } \r\n    //     }\r\n        \r\n    //     destinationAddress.transfer(donationAmount);\r\n\r\n    //     emit Donation(msg.sender, donationAmount, destinationAddress);\r\n\r\n    //     totalDonationsAmount += donationAmount;\r\n\r\n    //     if (donationAmount > highestDonation) {\r\n    //         highestDonation = donationAmount;\r\n    //         highestDonor = msg.sender;\r\n    //     }\r\n    // }\r\n\r\n    function validateCharityAddress(address payable validatingAddress)\r\n    isManager()\r\n    checkCharityAddress(validatingAddress) \r\n    public {\r\n        isValidated[validatingAddress] = true;\r\n        emit AddressValidation(msg.sender, validatingAddress);\r\n    }\r\n\r\n    function addManagerAddress(address managerAddress)\r\n    restrictToOwner()\r\n    isManager()\r\n    public {\r\n        isManagerAddress[managerAddress] = true;\r\n        emit AddManager(managerAddress);\r\n    }\r\n\r\n    /// Returns the total amount raised by all donations (in wei) towards any charity.\r\n    /// @return totalDonationsAmount\r\n    function getTotalDonationsAmount() public view returns (uint256) {\r\n        return totalDonationsAmount;\r\n    }\r\n\r\n    /// En yksek ba ve ba yapan dndrr\r\n    /// @return (highestDonation, highestDonor)\r\n    function getHighestDonation() public view restrictToOwner() returns (uint256, address payable)  {\r\n        return (highestDonation, payable(highestDonor));\r\n    }\r\n\r\n\r\n    // Contract' bir daha kullanlmamak zere blockchainden kaldrr\r\n    function destroy() public restrictToOwner() {\r\n        selfdestruct(payable(owner));\r\n    }\r\n}\r\n",
  "sourcePath": "C:\\Users\\alioz\\Documents\\ContractTests\\contracts\\Bagis.sol",
  "compiler": {
    "name": "solc",
    "version": "0.8.13+commit.abaa5c0e.Emscripten.clang"
  },
  "schemaVersion": "3.4.6",
  "updatedAt": "2022-06-10T13:42:36.563Z",
  "devdoc": {
    "kind": "dev",
    "methods": {
      "deposit(address,address[],uint256)": {
        "params": {
          "destinationAddress": "Ana adres",
          "mainPercentage": "Ana adrese aktarlacak yzde",
          "otherAddresses": "Dier adresler"
        }
      },
      "deposit(address,uint256)": {
        "params": {
          "destinationAddress": "Ana adres",
          "mainPercentage": "Ana adrese aktarlacak yzde"
        }
      },
      "getAddresses()": {
        "returns": {
          "_0": "charityAddresses"
        }
      },
      "getHighestDonation()": {
        "returns": {
          "_0": "(highestDonation, highestDonor)"
        }
      },
      "getTotalDonationsAmount()": {
        "returns": {
          "_0": "totalDonationsAmount"
        }
      }
    },
    "version": 1
  },
  "userdoc": {
    "events": {
      "Donation(address,uint256,address)": {
        "notice": "Ba yapan adresi ve ba miktarn blockchain'de kaydeder"
      }
    },
    "kind": "user",
    "methods": {
      "deposit(address,address[],uint256)": {
        "notice": "Parametre ile gelen yzdeyi ana adrese aktarr,  yzdenin geri kalanndaki miktar ise dier parametre ile gelen dier adresler arasnda bltrr"
      },
      "deposit(address,uint256)": {
        "notice": "Ana adrese ba yapar."
      },
      "getAddresses()": {
        "notice": "Btn ba adreslerini dndrr"
      },
      "getHighestDonation()": {
        "notice": "En yksek ba ve ba yapan dndrr"
      },
      "getTotalDonationsAmount()": {
        "notice": "Returns the total amount raised by all donations (in wei) towards any charity."
      }
    },
    "version": 1
  }
}