{
  "contractName": "KriptoBagis",
  "abi": [
    {
      "inputs": [
        {
          "internalType": "address[]",
          "name": "addresses_",
          "type": "address[]"
        }
      ],
      "stateMutability": "nonpayable",
      "type": "constructor"
    },
    {
      "anonymous": false,
      "inputs": [
        {
          "indexed": true,
          "internalType": "address",
          "name": "_managerAddress",
          "type": "address"
        }
      ],
      "name": "AddManager",
      "type": "event"
    },
    {
      "anonymous": false,
      "inputs": [
        {
          "indexed": true,
          "internalType": "address",
          "name": "_manager",
          "type": "address"
        },
        {
          "indexed": true,
          "internalType": "address",
          "name": "_validatedAddress",
          "type": "address"
        }
      ],
      "name": "AddressValidation",
      "type": "event"
    },
    {
      "anonymous": false,
      "inputs": [
        {
          "indexed": true,
          "internalType": "address",
          "name": "_donor",
          "type": "address"
        },
        {
          "indexed": false,
          "internalType": "uint256",
          "name": "_value",
          "type": "uint256"
        },
        {
          "indexed": true,
          "internalType": "address",
          "name": "_destinationAddress",
          "type": "address"
        }
      ],
      "name": "Donation",
      "type": "event"
    },
    {
      "inputs": [
        {
          "internalType": "string",
          "name": "organizationName",
          "type": "string"
        },
        {
          "internalType": "enum KriptoBagis.OrganizationType[]",
          "name": "organizationTypes",
          "type": "uint8[]"
        }
      ],
      "name": "addNewOrganization",
      "outputs": [],
      "stateMutability": "nonpayable",
      "type": "function"
    },
    {
      "inputs": [],
      "name": "getAddresses",
      "outputs": [
        {
          "internalType": "address payable[]",
          "name": "",
          "type": "address[]"
        }
      ],
      "stateMutability": "view",
      "type": "function"
    },
    {
      "inputs": [],
      "name": "getAddress",
      "outputs": [
        {
          "components": [
            {
              "internalType": "address payable",
              "name": "organizationAddress",
              "type": "address"
            },
            {
              "internalType": "string",
              "name": "organizationName",
              "type": "string"
            },
            {
              "internalType": "enum KriptoBagis.OrganizationType[]",
              "name": "organizationTypes",
              "type": "uint8[]"
            }
          ],
          "internalType": "struct KriptoBagis.Organization",
          "name": "",
          "type": "tuple"
        }
      ],
      "stateMutability": "view",
      "type": "function"
    },
    {
      "inputs": [
        {
          "internalType": "address payable",
          "name": "charityAddress",
          "type": "address"
        }
      ],
      "name": "getAddressInfos",
      "outputs": [
        {
          "internalType": "address payable",
          "name": "",
          "type": "address"
        },
        {
          "internalType": "string",
          "name": "",
          "type": "string"
        },
        {
          "internalType": "enum KriptoBagis.OrganizationType[]",
          "name": "",
          "type": "uint8[]"
        },
        {
          "internalType": "bool",
          "name": "",
          "type": "bool"
        }
      ],
      "stateMutability": "view",
      "type": "function"
    },
    {
      "inputs": [
        {
          "internalType": "address payable",
          "name": "destinationAddress",
          "type": "address"
        },
        {
          "internalType": "address payable[]",
          "name": "otherAddresses",
          "type": "address[]"
        },
        {
          "internalType": "uint256",
          "name": "mainPercentage",
          "type": "uint256"
        }
      ],
      "name": "deposit",
      "outputs": [],
      "stateMutability": "payable",
      "type": "function"
    },
    {
      "inputs": [
        {
          "internalType": "address payable",
          "name": "destinationAddress",
          "type": "address"
        },
        {
          "internalType": "uint256",
          "name": "mainPercentage",
          "type": "uint256"
        }
      ],
      "name": "depositDirect",
      "outputs": [],
      "stateMutability": "payable",
      "type": "function"
    },
    {
      "inputs": [
        {
          "internalType": "address payable",
          "name": "validatingAddress",
          "type": "address"
        }
      ],
      "name": "validateCharityAddress",
      "outputs": [],
      "stateMutability": "nonpayable",
      "type": "function"
    },
    {
      "inputs": [
        {
          "internalType": "address",
          "name": "managerAddress",
          "type": "address"
        }
      ],
      "name": "addManagerAddress",
      "outputs": [],
      "stateMutability": "nonpayable",
      "type": "function"
    },
    {
      "inputs": [],
      "name": "getTotalDonationsAmount",
      "outputs": [
        {
          "internalType": "uint256",
          "name": "",
          "type": "uint256"
        }
      ],
      "stateMutability": "view",
      "type": "function"
    },
    {
      "inputs": [],
      "name": "getHighestDonation",
      "outputs": [
        {
          "internalType": "uint256",
          "name": "",
          "type": "uint256"
        },
        {
          "internalType": "address payable",
          "name": "",
          "type": "address"
        }
      ],
      "stateMutability": "view",
      "type": "function"
    },
    {
      "inputs": [],
      "name": "destroy",
      "outputs": [],
      "stateMutability": "nonpayable",
      "type": "function"
    }
  ],
  "bytecode": "0x60806040523480156200001157600080fd5b5060405162002f0838038062002f088339818101604052810190620000379190620003db565b336000806101000a81548173ffffffffffffffffffffffffffffffffffffffff021916908373ffffffffffffffffffffffffffffffffffffffff16021790555080600590805190602001906200008f9291906200013f565b5060005b815181101562000127576001806000848481518110620000b857620000b76200042c565b5b602002602001015173ffffffffffffffffffffffffffffffffffffffff1673ffffffffffffffffffffffffffffffffffffffff16815260200190815260200160002060006101000a81548160ff02191690831515021790555080806200011e9062000494565b91505062000093565b506000600681905550600060078190555050620004e1565b828054828255906000526020600020908101928215620001bb579160200282015b82811115620001ba5782518260006101000a81548173ffffffffffffffffffffffffffffffffffffffff021916908373ffffffffffffffffffffffffffffffffffffffff1602179055509160200191906001019062000160565b5b509050620001ca9190620001ce565b5090565b5b80821115620001e9576000816000905550600101620001cf565b5090565b6000604051905090565b600080fd5b600080fd5b600080fd5b6000601f19601f8301169050919050565b7f4e487b7100000000000000000000000000000000000000000000000000000000600052604160045260246000fd5b620002518262000206565b810181811067ffffffffffffffff8211171562000273576200027262000217565b5b80604052505050565b600062000288620001ed565b905062000296828262000246565b919050565b600067ffffffffffffffff821115620002b957620002b862000217565b5b602082029050602081019050919050565b600080fd5b600073ffffffffffffffffffffffffffffffffffffffff82169050919050565b6000620002fc82620002cf565b9050919050565b6200030e81620002ef565b81146200031a57600080fd5b50565b6000815190506200032e8162000303565b92915050565b60006200034b62000345846200029b565b6200027c565b90508083825260208201905060208402830185811115620003715762000370620002ca565b5b835b818110156200039e57806200038988826200031d565b84526020840193505060208101905062000373565b5050509392505050565b600082601f830112620003c057620003bf62000201565b5b8151620003d284826020860162000334565b91505092915050565b600060208284031215620003f457620003f3620001f7565b5b600082015167ffffffffffffffff811115620004155762000414620001fc565b5b6200042384828501620003a8565b91505092915050565b7f4e487b7100000000000000000000000000000000000000000000000000000000600052603260045260246000fd5b7f4e487b7100000000000000000000000000000000000000000000000000000000600052601160045260246000fd5b6000819050919050565b6000620004a1826200048a565b91507fffffffffffffffffffffffffffffffffffffffffffffffffffffffffffffffff8203620004d657620004d56200045b565b5b600182019050919050565b612a1780620004f16000396000f3fe60806040526004361061009c5760003560e01c806341abfdc01161006457806341abfdc01461016557806383197ef0146101815780638e83a51314610198578063a39fac12146101c1578063de56a296146101ec578063efb349af1461022c5761009c565b8063129009b8146100a1578063141b8809146100ca57806329b0f4f2146100f557806333f075de1461011e57806338cc48311461013a575b600080fd5b3480156100ad57600080fd5b506100c860048036038101906100c391906119f8565b610258565b005b3480156100d657600080fd5b506100df610465565b6040516100ec9190611a3e565b60405180910390f35b34801561010157600080fd5b5061011c60048036038101906101179190611c8c565b61046f565b005b61013860048036038101906101339190611d6e565b6105ca565b005b34801561014657600080fd5b5061014f610917565b60405161015c9190611fc2565b60405180910390f35b61017f600480360381019061017a91906120a7565b610ae3565b005b34801561018d57600080fd5b50610196611004565b005b3480156101a457600080fd5b506101bf60048036038101906101ba9190612116565b6110cb565b005b3480156101cd57600080fd5b506101d6611388565b6040516101e391906121f2565b60405180910390f35b3480156101f857600080fd5b50610213600480360381019061020e9190612116565b611416565b60405161022394939291906122f7565b60405180910390f35b34801561023857600080fd5b50610241611737565b60405161024f92919061234a565b60405180910390f35b60008054906101000a900473ffffffffffffffffffffffffffffffffffffffff1673ffffffffffffffffffffffffffffffffffffffff163373ffffffffffffffffffffffffffffffffffffffff16146102e6576040517f08c379a00000000000000000000000000000000000000000000000000000000081526004016102dd9061240b565b60405180910390fd5b600160003373ffffffffffffffffffffffffffffffffffffffff1673ffffffffffffffffffffffffffffffffffffffff16815260200190815260200160002060009054906101000a900460ff1680610389575060008054906101000a900473ffffffffffffffffffffffffffffffffffffffff1673ffffffffffffffffffffffffffffffffffffffff163373ffffffffffffffffffffffffffffffffffffffff16145b6103c8576040517f08c379a00000000000000000000000000000000000000000000000000000000081526004016103bf9061249d565b60405180910390fd5b60018060008373ffffffffffffffffffffffffffffffffffffffff1673ffffffffffffffffffffffffffffffffffffffff16815260200190815260200160002060006101000a81548160ff0219169083151502179055508073ffffffffffffffffffffffffffffffffffffffff167f3630096a7f9a158ab9fae41e86bfe31fd2202585a26a9668242672566dae028d60405160405180910390a250565b6000600654905090565b60405180606001604052803373ffffffffffffffffffffffffffffffffffffffff16815260200183815260200182815250600260003373ffffffffffffffffffffffffffffffffffffffff1673ffffffffffffffffffffffffffffffffffffffff16815260200190815260200160002060008201518160000160006101000a81548173ffffffffffffffffffffffffffffffffffffffff021916908373ffffffffffffffffffffffffffffffffffffffff16021790555060208201518160010190805190602001906105429291906117f6565b50604082015181600201908051906020019061055f92919061187c565b509050506004339080600181540180825580915050600190039060005260206000200160009091909190916101000a81548173ffffffffffffffffffffffffffffffffffffffff021916908373ffffffffffffffffffffffffffffffffffffffff1602179055505050565b818073ffffffffffffffffffffffffffffffffffffffff163373ffffffffffffffffffffffffffffffffffffffff1603610639576040517f08c379a00000000000000000000000000000000000000000000000000000000081526004016106309061252f565b60405180910390fd5b6000341161067c576040517f08c379a0000000000000000000000000000000000000000000000000000000008152600401610673906125c1565b60405180910390fd5b826000600480549050116106c5576040517f08c379a00000000000000000000000000000000000000000000000000000000081526004016106bc90612653565b60405180910390fd5b6000805b60048054905081101561075f578273ffffffffffffffffffffffffffffffffffffffff166004828154811061070157610700612673565b5b9060005260206000200160009054906101000a900473ffffffffffffffffffffffffffffffffffffffff1673ffffffffffffffffffffffffffffffffffffffff160361074c57600191505b8080610757906126d1565b9150506106c9565b50806107a0576040517f08c379a00000000000000000000000000000000000000000000000000000000081526004016107979061278b565b60405180910390fd5b836000811180156107b2575060648111155b6107f1576040517f08c379a00000000000000000000000000000000000000000000000000000000081526004016107e89061281d565b60405180910390fd5b60003490508673ffffffffffffffffffffffffffffffffffffffff166108fc829081150290604051600060405180830381858888f1935050505015801561083c573d6000803e3d6000fd5b508673ffffffffffffffffffffffffffffffffffffffff163373ffffffffffffffffffffffffffffffffffffffff167fc0bceae83bc3bc42cc5b2ff5d9c6f6895bbb7b727b9a086a371689055789aabe8360405161089a9190611a3e565b60405180910390a380600660008282546108b4919061283d565b9250508190555060075481111561090e578060078190555033600860006101000a81548173ffffffffffffffffffffffffffffffffffffffff021916908373ffffffffffffffffffffffffffffffffffffffff1602179055505b50505050505050565b61091f611932565b600260003373ffffffffffffffffffffffffffffffffffffffff1673ffffffffffffffffffffffffffffffffffffffff1681526020019081526020016000206040518060600160405290816000820160009054906101000a900473ffffffffffffffffffffffffffffffffffffffff1673ffffffffffffffffffffffffffffffffffffffff1673ffffffffffffffffffffffffffffffffffffffff1681526020016001820180546109cf906128c2565b80601f01602080910402602001604051908101604052809291908181526020018280546109fb906128c2565b8015610a485780601f10610a1d57610100808354040283529160200191610a48565b820191906000526020600020905b815481529060010190602001808311610a2b57829003601f168201915b5050505050815260200160028201805480602002602001604051908101604052809291908181526020018280548015610ad557602002820191906000526020600020906000905b82829054906101000a900460ff166007811115610aaf57610aae611e71565b5b81526020019060010190602082600001049283019260010382029150808411610a8f5790505b505050505081525050905090565b828073ffffffffffffffffffffffffffffffffffffffff163373ffffffffffffffffffffffffffffffffffffffff1603610b52576040517f08c379a0000000000000000000000000000000000000000000000000000000008152600401610b499061252f565b60405180910390fd5b60003411610b95576040517f08c379a0000000000000000000000000000000000000000000000000000000008152600401610b8c906125c1565b60405180910390fd5b83600060048054905011610bde576040517f08c379a0000000000000000000000000000000000000000000000000000000008152600401610bd590612653565b60405180910390fd5b6000805b600480549050811015610c78578273ffffffffffffffffffffffffffffffffffffffff1660048281548110610c1a57610c19612673565b5b9060005260206000200160009054906101000a900473ffffffffffffffffffffffffffffffffffffffff1673ffffffffffffffffffffffffffffffffffffffff1603610c6557600191505b8080610c70906126d1565b915050610be2565b5080610cb9576040517f08c379a0000000000000000000000000000000000000000000000000000000008152600401610cb09061278b565b60405180910390fd5b846000805b600480549050811015610d8e5760005b8351811015610d7a57838181518110610cea57610ce9612673565b5b602002602001015173ffffffffffffffffffffffffffffffffffffffff1660048381548110610d1c57610d1b612673565b5b9060005260206000200160009054906101000a900473ffffffffffffffffffffffffffffffffffffffff1673ffffffffffffffffffffffffffffffffffffffff1603610d6757600192505b8080610d72906126d1565b915050610cce565b508080610d86906126d1565b915050610cbe565b5080610dcf576040517f08c379a0000000000000000000000000000000000000000000000000000000008152600401610dc69061278b565b60405180910390fd5b85600081118015610de1575060648111155b610e20576040517f08c379a0000000000000000000000000000000000000000000000000000000008152600401610e179061281d565b60405180910390fd5b600060648834610e3091906128f3565b610e3a919061297c565b905060008134610e4a91906129ad565b905060008a5182610e5b919061297c565b905060005b8b51811015610edd578b8181518110610e7c57610e7b612673565b5b602002602001015173ffffffffffffffffffffffffffffffffffffffff166108fc839081150290604051600060405180830381858888f19350505050158015610ec9573d6000803e3d6000fd5b508080610ed5906126d1565b915050610e60565b508b73ffffffffffffffffffffffffffffffffffffffff166108fc849081150290604051600060405180830381858888f19350505050158015610f24573d6000803e3d6000fd5b508b73ffffffffffffffffffffffffffffffffffffffff163373ffffffffffffffffffffffffffffffffffffffff167fc0bceae83bc3bc42cc5b2ff5d9c6f6895bbb7b727b9a086a371689055789aabe85604051610f829190611a3e565b60405180910390a38260066000828254610f9c919061283d565b92505081905550600754831115610ff6578260078190555033600860006101000a81548173ffffffffffffffffffffffffffffffffffffffff021916908373ffffffffffffffffffffffffffffffffffffffff1602179055505b505050505050505050505050565b60008054906101000a900473ffffffffffffffffffffffffffffffffffffffff1673ffffffffffffffffffffffffffffffffffffffff163373ffffffffffffffffffffffffffffffffffffffff1614611092576040517f08c379a00000000000000000000000000000000000000000000000000000000081526004016110899061240b565b60405180910390fd5b60008054906101000a900473ffffffffffffffffffffffffffffffffffffffff1673ffffffffffffffffffffffffffffffffffffffff16ff5b600160003373ffffffffffffffffffffffffffffffffffffffff1673ffffffffffffffffffffffffffffffffffffffff16815260200190815260200160002060009054906101000a900460ff168061116e575060008054906101000a900473ffffffffffffffffffffffffffffffffffffffff1673ffffffffffffffffffffffffffffffffffffffff163373ffffffffffffffffffffffffffffffffffffffff16145b6111ad576040517f08c379a00000000000000000000000000000000000000000000000000000000081526004016111a49061249d565b60405180910390fd5b806000600480549050116111f6576040517f08c379a00000000000000000000000000000000000000000000000000000000081526004016111ed90612653565b60405180910390fd5b6000805b600480549050811015611290578273ffffffffffffffffffffffffffffffffffffffff166004828154811061123257611231612673565b5b9060005260206000200160009054906101000a900473ffffffffffffffffffffffffffffffffffffffff1673ffffffffffffffffffffffffffffffffffffffff160361127d57600191505b8080611288906126d1565b9150506111fa565b50806112d1576040517f08c379a00000000000000000000000000000000000000000000000000000000081526004016112c89061278b565b60405180910390fd5b6001600360008573ffffffffffffffffffffffffffffffffffffffff1673ffffffffffffffffffffffffffffffffffffffff16815260200190815260200160002060006101000a81548160ff0219169083151502179055508273ffffffffffffffffffffffffffffffffffffffff163373ffffffffffffffffffffffffffffffffffffffff167ff880befad2c8adef70e70928090f5097492cac381953be7c05fd142924a39ecd60405160405180910390a3505050565b6060600480548060200260200160405190810160405280929190818152602001828054801561140c57602002820191906000526020600020905b8160009054906101000a900473ffffffffffffffffffffffffffffffffffffffff1673ffffffffffffffffffffffffffffffffffffffff16815260200190600101908083116113c2575b5050505050905090565b6000606080600084600060048054905011611466576040517f08c379a000000000000000000000000000000000000000000000000000000000815260040161145d90612653565b60405180910390fd5b6000805b600480549050811015611500578273ffffffffffffffffffffffffffffffffffffffff16600482815481106114a2576114a1612673565b5b9060005260206000200160009054906101000a900473ffffffffffffffffffffffffffffffffffffffff1673ffffffffffffffffffffffffffffffffffffffff16036114ed57600191505b80806114f8906126d1565b91505061146a565b5080611541576040517f08c379a00000000000000000000000000000000000000000000000000000000081526004016115389061278b565b60405180910390fd5b86600260008973ffffffffffffffffffffffffffffffffffffffff1673ffffffffffffffffffffffffffffffffffffffff168152602001908152602001600020600101600260008a73ffffffffffffffffffffffffffffffffffffffff1673ffffffffffffffffffffffffffffffffffffffff168152602001908152602001600020600201600360008b73ffffffffffffffffffffffffffffffffffffffff1673ffffffffffffffffffffffffffffffffffffffff16815260200190815260200160002060009054906101000a900460ff1682805461161f906128c2565b80601f016020809104026020016040519081016040528092919081815260200182805461164b906128c2565b80156116985780601f1061166d57610100808354040283529160200191611698565b820191906000526020600020905b81548152906001019060200180831161167b57829003601f168201915b505050505092508180548060200260200160405190810160405280929190818152602001828054801561171f57602002820191906000526020600020906000905b82829054906101000a900460ff1660078111156116f9576116f8611e71565b5b815260200190600101906020826000010492830192600103820291508084116116d95790505b50505050509150955095509550955050509193509193565b60008060008054906101000a900473ffffffffffffffffffffffffffffffffffffffff1673ffffffffffffffffffffffffffffffffffffffff163373ffffffffffffffffffffffffffffffffffffffff16146117c8576040517f08c379a00000000000000000000000000000000000000000000000000000000081526004016117bf9061240b565b60405180910390fd5b600754600860009054906101000a900473ffffffffffffffffffffffffffffffffffffffff16915091509091565b828054611802906128c2565b90600052602060002090601f016020900481019282611824576000855561186b565b82601f1061183d57805160ff191683800117855561186b565b8280016001018555821561186b579182015b8281111561186a57825182559160200191906001019061184f565b5b5090506118789190611969565b5090565b82805482825590600052602060002090601f016020900481019282156119215791602002820160005b838211156118f257835183826101000a81548160ff021916908360078111156118d1576118d0611e71565b5b021790555092602001926001016020816000010492830192600103026118a5565b801561191f5782816101000a81549060ff02191690556001016020816000010492830192600103026118f2565b505b50905061192e9190611969565b5090565b6040518060600160405280600073ffffffffffffffffffffffffffffffffffffffff16815260200160608152602001606081525090565b5b8082111561198257600081600090555060010161196a565b5090565b6000604051905090565b600080fd5b600080fd5b600073ffffffffffffffffffffffffffffffffffffffff82169050919050565b60006119c58261199a565b9050919050565b6119d5816119ba565b81146119e057600080fd5b50565b6000813590506119f2816119cc565b92915050565b600060208284031215611a0e57611a0d611990565b5b6000611a1c848285016119e3565b91505092915050565b6000819050919050565b611a3881611a25565b82525050565b6000602082019050611a536000830184611a2f565b92915050565b600080fd5b600080fd5b6000601f19601f8301169050919050565b7f4e487b7100000000000000000000000000000000000000000000000000000000600052604160045260246000fd5b611aac82611a63565b810181811067ffffffffffffffff82111715611acb57611aca611a74565b5b80604052505050565b6000611ade611986565b9050611aea8282611aa3565b919050565b600067ffffffffffffffff821115611b0a57611b09611a74565b5b611b1382611a63565b9050602081019050919050565b82818337600083830152505050565b6000611b42611b3d84611aef565b611ad4565b905082815260208101848484011115611b5e57611b5d611a5e565b5b611b69848285611b20565b509392505050565b600082601f830112611b8657611b85611a59565b5b8135611b96848260208601611b2f565b91505092915050565b600067ffffffffffffffff821115611bba57611bb9611a74565b5b602082029050602081019050919050565b600080fd5b60088110611bdd57600080fd5b50565b600081359050611bef81611bd0565b92915050565b6000611c08611c0384611b9f565b611ad4565b90508083825260208201905060208402830185811115611c2b57611c2a611bcb565b5b835b81811015611c545780611c408882611be0565b845260208401935050602081019050611c2d565b5050509392505050565b600082601f830112611c7357611c72611a59565b5b8135611c83848260208601611bf5565b91505092915050565b60008060408385031215611ca357611ca2611990565b5b600083013567ffffffffffffffff811115611cc157611cc0611995565b5b611ccd85828601611b71565b925050602083013567ffffffffffffffff811115611cee57611ced611995565b5b611cfa85828601611c5e565b9150509250929050565b6000611d0f8261199a565b9050919050565b611d1f81611d04565b8114611d2a57600080fd5b50565b600081359050611d3c81611d16565b92915050565b611d4b81611a25565b8114611d5657600080fd5b50565b600081359050611d6881611d42565b92915050565b60008060408385031215611d8557611d84611990565b5b6000611d9385828601611d2d565b9250506020611da485828601611d59565b9150509250929050565b611db781611d04565b82525050565b600081519050919050565b600082825260208201905092915050565b60005b83811015611df7578082015181840152602081019050611ddc565b83811115611e06576000848401525b50505050565b6000611e1782611dbd565b611e218185611dc8565b9350611e31818560208601611dd9565b611e3a81611a63565b840191505092915050565b600081519050919050565b600082825260208201905092915050565b6000819050602082019050919050565b7f4e487b7100000000000000000000000000000000000000000000000000000000600052602160045260246000fd5b60088110611eb157611eb0611e71565b5b50565b6000819050611ec282611ea0565b919050565b6000611ed282611eb4565b9050919050565b611ee281611ec7565b82525050565b6000611ef48383611ed9565b60208301905092915050565b6000602082019050919050565b6000611f1882611e45565b611f228185611e50565b9350611f2d83611e61565b8060005b83811015611f5e578151611f458882611ee8565b9750611f5083611f00565b925050600181019050611f31565b5085935050505092915050565b6000606083016000830151611f836000860182611dae565b5060208301518482036020860152611f9b8282611e0c565b91505060408301518482036040860152611fb58282611f0d565b9150508091505092915050565b60006020820190508181036000830152611fdc8184611f6b565b905092915050565b600067ffffffffffffffff821115611fff57611ffe611a74565b5b602082029050602081019050919050565b600061202361201e84611fe4565b611ad4565b9050808382526020820190506020840283018581111561204657612045611bcb565b5b835b8181101561206f578061205b8882611d2d565b845260208401935050602081019050612048565b5050509392505050565b600082601f83011261208e5761208d611a59565b5b813561209e848260208601612010565b91505092915050565b6000806000606084860312156120c0576120bf611990565b5b60006120ce86828701611d2d565b935050602084013567ffffffffffffffff8111156120ef576120ee611995565b5b6120fb86828701612079565b925050604061210c86828701611d59565b9150509250925092565b60006020828403121561212c5761212b611990565b5b600061213a84828501611d2d565b91505092915050565b600081519050919050565b600082825260208201905092915050565b6000819050602082019050919050565b600061217b8383611dae565b60208301905092915050565b6000602082019050919050565b600061219f82612143565b6121a9818561214e565b93506121b48361215f565b8060005b838110156121e55781516121cc888261216f565b97506121d783612187565b9250506001810190506121b8565b5085935050505092915050565b6000602082019050818103600083015261220c8184612194565b905092915050565b61221d81611d04565b82525050565b600082825260208201905092915050565b600061223f82611dbd565b6122498185612223565b9350612259818560208601611dd9565b61226281611a63565b840191505092915050565b600082825260208201905092915050565b600061228982611e45565b612293818561226d565b935061229e83611e61565b8060005b838110156122cf5781516122b68882611ee8565b97506122c183611f00565b9250506001810190506122a2565b5085935050505092915050565b60008115159050919050565b6122f1816122dc565b82525050565b600060808201905061230c6000830187612214565b818103602083015261231e8186612234565b90508181036040830152612332818561227e565b905061234160608301846122e8565b95945050505050565b600060408201905061235f6000830185611a2f565b61236c6020830184612214565b9392505050565b7f4d6574686f6420617661696c61626c65206f6e6c7920746f2074686520746f2060008201527f74686520757365722074686174206465706c6f7965642074686520636f6e747260208201527f6163740000000000000000000000000000000000000000000000000000000000604082015250565b60006123f5604383612223565b915061240082612373565b606082019050919050565b60006020820190508181036000830152612424816123e8565b9050919050565b7f5468652041646472657373206973206e6f7420617574686f72697a6564206d6160008201527f6e61676572206164647265737300000000000000000000000000000000000000602082015250565b6000612487602d83612223565b91506124928261242b565b604082019050919050565b600060208201905081810360008301526124b68161247a565b9050919050565b7f53656e64657220616e6420726563697069656e742063616e6e6f74206265207460008201527f68652073616d652e000000000000000000000000000000000000000000000000602082015250565b6000612519602883612223565b9150612524826124bd565b604082019050919050565b600060208201905081810360008301526125488161250c565b9050919050565b7f5472616e7366657220616d6f756e742068617320746f2062652067726561746560008201527f72207468616e20302e0000000000000000000000000000000000000000000000602082015250565b60006125ab602983612223565b91506125b68261254f565b604082019050919050565b600060208201905081810360008301526125da8161259e565b9050919050565b7f43757272656e746c7920746865726520617265206e6f2061646472657373657360008201527f20696e2074686520636f6e747261637400000000000000000000000000000000602082015250565b600061263d603083612223565b9150612648826125e1565b604082019050919050565b6000602082019050818103600083015261266c81612630565b9050919050565b7f4e487b7100000000000000000000000000000000000000000000000000000000600052603260045260246000fd5b7f4e487b7100000000000000000000000000000000000000000000000000000000600052601160045260246000fd5b60006126dc82611a25565b91507fffffffffffffffffffffffffffffffffffffffffffffffffffffffffffffffff820361270e5761270d6126a2565b5b600182019050919050565b7f44657374696e6174696f6e2061646472657320646964206e6f7420666f756e6460008201527f20696e2074686520636f6e747261637400000000000000000000000000000000602082015250565b6000612775603083612223565b915061278082612719565b604082019050919050565b600060208201905081810360008301526127a481612768565b9050919050565b7f4d61696e2070657263656e74616765206d757374206265747765656e2030207460008201527f6f20313030000000000000000000000000000000000000000000000000000000602082015250565b6000612807602583612223565b9150612812826127ab565b604082019050919050565b60006020820190508181036000830152612836816127fa565b9050919050565b600061284882611a25565b915061285383611a25565b9250827fffffffffffffffffffffffffffffffffffffffffffffffffffffffffffffffff03821115612888576128876126a2565b5b828201905092915050565b7f4e487b7100000000000000000000000000000000000000000000000000000000600052602260045260246000fd5b600060028204905060018216806128da57607f821691505b6020821081036128ed576128ec612893565b5b50919050565b60006128fe82611a25565b915061290983611a25565b9250817fffffffffffffffffffffffffffffffffffffffffffffffffffffffffffffffff0483118215151615612942576129416126a2565b5b828202905092915050565b7f4e487b7100000000000000000000000000000000000000000000000000000000600052601260045260246000fd5b600061298782611a25565b915061299283611a25565b9250826129a2576129a161294d565b5b828204905092915050565b60006129b882611a25565b91506129c383611a25565b9250828210156129d6576129d56126a2565b5b82820390509291505056fea26469706673582212202a4c5b71f2bf75b649442357369e2229b72e229afddd2bd44fcaf56538de58bd64736f6c634300080d0033",
  "immutableReferences": {},
  "source": "// SPDX-License-Identifier: MIT\r\npragma solidity ^0.8.13;\r\n\r\ncontract KriptoBagis{\r\n    address owner;\r\n    mapping (address => bool) isManagerAddress;\r\n    mapping (address => Organization) charityAddressInfos;\r\n    mapping (address => bool) isValidated;\r\n    address payable[] charityAddresses;\r\n    address[] managerAddresses;\r\n    uint256 totalDonationsAmount;\r\n    uint256 highestDonation;\r\n    address highestDonor;\r\n\r\n    enum OrganizationType{\r\n        Education, //0\r\n        Health, //1\r\n        Environment, //2\r\n        Religion, //3\r\n        CivilSociety, //4\r\n        International, //5\r\n        BigInternational, //6\r\n        GovernmentOrganized //7\r\n    }\r\n\r\n    struct Organization{\r\n        address payable organizationAddress;\r\n        string organizationName;\r\n        OrganizationType[] organizationTypes;\r\n    }\r\n\r\n\r\n    /// Ba yapan adresi ve ba miktarn blockchain'de kaydeder\r\n    event Donation(\r\n        address indexed _donor,\r\n        uint256 _value,\r\n        address indexed _destinationAddress\r\n    );\r\n\r\n    // Contract'ta tanmlanan manager'n onaylad adresin bilgisini blockchian'de kaydeder\r\n    event AddressValidation(\r\n        address indexed _manager,\r\n        address indexed _validatedAddress\r\n    );\r\n\r\n    //contracta eklenen manager address bilgisi\r\n    event AddManager(\r\n        address indexed _managerAddress\r\n    );\r\n\r\n    //function getOrganization(address payable memory address) public returns ()\r\n    constructor(address[] memory addresses_){\r\n        owner = msg.sender; //Contract' deploylayan kiinin kaydnn tutulmas\r\n        managerAddresses = addresses_;\r\n        for(uint i=0; i < addresses_.length; i++){\r\n            isManagerAddress[addresses_[i]] = true;\r\n        }\r\n        totalDonationsAmount = 0;\r\n        highestDonation = 0;\r\n    }\r\n\r\n\r\n    function addNewOrganization(string memory organizationName, OrganizationType[] memory organizationTypes) public {\r\n        //for(uint i=0; i < organizationTypes.length; i++){\r\n        //    require(organizationTypes[i] >= 0 && organizationTypes[i] <= 7, 'Organization Type is Not Valid, Valid range is between 0 and 7');\r\n        //}\r\n\r\n        // Organization storage newOrganization = charityAddressInfos[msg.sender];\r\n\r\n        // newOrganization.organizationAddress = payable(msg.sender);\r\n        // newOrganization.organizationName = organizationName;\r\n        // newOrganization.organizationTypes = organizationTypes;\r\n\r\n        //charityAddresses.push(payable(msg.sender));\r\n\r\n        //charityAddresses.push(payable(msg.sender));\r\n        charityAddressInfos[msg.sender] = Organization({\r\n            organizationAddress: payable(msg.sender),\r\n            organizationName: organizationName,\r\n            organizationTypes: organizationTypes\r\n\r\n        });\r\n        charityAddresses.push(payable(msg.sender));\r\n    }\r\n\r\n    /// Btn ba adreslerini dndrr\r\n    /// @return charityAddresses\r\n    function getAddresses() public view returns (address payable[] memory) {\r\n        return charityAddresses;\r\n    }\r\n\r\n    function getAddress() public view returns(Organization memory){\r\n        return charityAddressInfos[msg.sender];\r\n    }\r\n\r\n    \r\n    function getAddressInfos(address payable charityAddress) public checkCharityAddress(charityAddress) view returns (address payable, string memory, OrganizationType[] memory, bool)\r\n    {\r\n        return (charityAddress, charityAddressInfos[charityAddress].organizationName, charityAddressInfos[charityAddress].organizationTypes, isValidated[charityAddress]);\r\n    }\r\n      \r\n\r\n    //Contract' deploylayan adresin dorulanmas iin\r\n    modifier restrictToOwner() {\r\n        require(msg.sender == owner, 'Method available only to the to the user that deployed the contract');\r\n        _;\r\n    }\r\n\r\n    //Organizasyon czdanlarn dorulayacak adreslerin yetkili olup olmadn kontrol eder\r\n    modifier isManager(){\r\n        require(isManagerAddress[msg.sender] || msg.sender == owner,'The Address is not authorized manager address');\r\n        _;\r\n    }\r\n\r\n    //Ba yaplacak adres daha nce contract'a kaydedildi mi?\r\n    modifier checkCharityAddress(address payable destinationAddress) {\r\n        require(charityAddresses.length > 0, 'Currently there are no addresses in the contract');\r\n        bool addresFound = false;\r\n        for(uint i=0 ; i < charityAddresses.length; i++){\r\n            if(charityAddresses[i] == destinationAddress){\r\n                addresFound = true;\r\n            }\r\n        }\r\n        require(addresFound, 'Destination addres did not found in the contract');\r\n        _;\r\n    }\r\n\r\n    //Ba yaplacak adres daha nce contract'a kaydedildi mi?\r\n    modifier checkOtherCharityAddresses(address payable[] memory otherDestinationAddresses) {\r\n        bool addresFound = false;\r\n        for(uint i=0 ; i < charityAddresses.length; i++){\r\n            for(uint j=0; j < otherDestinationAddresses.length; j++)\r\n                if(charityAddresses[i] == otherDestinationAddresses[j]){\r\n                    addresFound = true;\r\n                }\r\n        }\r\n        require(addresFound, 'Destination addres did not found in the contract');\r\n        _;\r\n    }\r\n\r\n\r\n    //Ba yapan kii kendi adresine ba yapamaz\r\n    modifier validateDestination(address payable destinationAddress) {\r\n        require(msg.sender != destinationAddress, 'Sender and recipient cannot be the same.');\r\n        _;\r\n    }\r\n\r\n    //// Validates that the charity index number provided is a valid one.\r\n    ///\r\n    /// @param charityIndex The target charity index to validate. Indexes start from 0 and increment by 1.\r\n    modifier validateCharity(uint256 charityIndex) {\r\n        require(charityIndex <= charityAddresses.length - 1, 'Invalid charity index.');\r\n        _;\r\n    }\r\n    \r\n    /// Validates that the amount to transfer is not zero.\r\n    modifier validateTransferAmount() {\r\n        require(msg.value > 0, 'Transfer amount has to be greater than 0.');\r\n        _;\r\n    }\r\n\r\n     /// Validates that the donated amount is within acceptable limits.\r\n    ///\r\n    /// @param donationAmount The target donation amount.\r\n    /// @dev donated amount >= 1% of the total transferred amount and <= 50% of the total transferred amount.\r\n    modifier validateDonationAmount(uint256 donationAmount) {\r\n        require(donationAmount >= msg.value / 100 && donationAmount <= msg.value / 2,\r\n            'Donation amount has to be from 1% to 50% of the total transferred amount');\r\n        _;\r\n    }\r\n\r\n    modifier validateDonationPercentage(uint256 mainPercentage) {\r\n        require(mainPercentage > 0 && mainPercentage <= 100,\r\n            'Main percentage must between 0 to 100');\r\n        _;\r\n    }\r\n\r\n    /// Parametre ile gelen yzdeyi ana adrese aktarr, \r\n    /// yzdenin geri kalanndaki miktar ise dier parametre ile gelen dier adresler arasnda bltrr\r\n    ///\r\n    /// @param destinationAddress Ana adres\r\n    /// @param otherAddresses Dier adresler\r\n    /// @param mainPercentage Ana adrese aktarlacak yzde\r\n    function deposit(address payable destinationAddress, address payable[] memory otherAddresses, uint256 mainPercentage) public \r\n    validateDestination(destinationAddress)\r\n    validateTransferAmount() \r\n    checkCharityAddress(destinationAddress) \r\n    checkOtherCharityAddresses(otherAddresses) \r\n    validateDonationPercentage(mainPercentage)  \r\n    payable {\r\n\r\n\r\n        uint256 donationAmount = (msg.value * mainPercentage) / 100 ;\r\n        uint256 actualDeposit = msg.value - donationAmount;\r\n        uint256 otherAddressAmount = actualDeposit / otherAddresses.length;\r\n\r\n        for(uint i=0; i< otherAddresses.length; i++){\r\n            otherAddresses[i].transfer(otherAddressAmount);\r\n        } \r\n        destinationAddress.transfer(donationAmount);\r\n\r\n        emit Donation(msg.sender, donationAmount, destinationAddress);\r\n\r\n        totalDonationsAmount += donationAmount;\r\n\r\n        if (donationAmount > highestDonation) {\r\n            highestDonation = donationAmount;\r\n            highestDonor = msg.sender;\r\n        }\r\n    }\r\n\r\n\r\n    /// Ana adrese ba yapar.\r\n    ///\r\n    /// @param destinationAddress Ana adres\r\n    /// @param mainPercentage Ana adrese aktarlacak yzde\r\n    function depositDirect(address payable destinationAddress,  uint256 mainPercentage) \r\n    validateDestination(destinationAddress)\r\n    validateTransferAmount() \r\n    checkCharityAddress(destinationAddress) \r\n    validateDonationPercentage(mainPercentage)  \r\n    external payable {\r\n\r\n\r\n        uint256 donationAmount = msg.value;\r\n\r\n        destinationAddress.transfer(donationAmount);\r\n\r\n        emit Donation(msg.sender, donationAmount, destinationAddress);\r\n\r\n        totalDonationsAmount += donationAmount;\r\n\r\n        if (donationAmount > highestDonation) {\r\n            highestDonation = donationAmount;\r\n            highestDonor = msg.sender;\r\n        }\r\n    }\r\n\r\n    // /// Parametre ile gelen yzdeyi ana adrese aktarr, \r\n    // /// yzdenin geri kalanndaki miktar ise parametre olarak gelen organizasyon tipindeki dier adreslere datr, SADECE dorulanm adreslere datr.\r\n    // ///\r\n    // /// @param destinationAddress Ana adres\r\n    // /// @param mainPercentage Ana adrese aktarlacak yzde\r\n    // /// @param organizationType Ban geri kalannn datm yaplacak organizasyon tipi\r\n    // function deposit(address payable destinationAddress, uint256 mainPercentage, OrganizationType organizationType) public \r\n    // validateDestination(destinationAddress)\r\n    // validateTransferAmount() \r\n    // checkCharityAddress(destinationAddress) \r\n    // validateDonationPercentage(mainPercentage)  \r\n    // payable {\r\n\r\n\r\n    //     uint256 donationAmount = (msg.value * mainPercentage) / 100 ;\r\n    //     uint256 actualDeposit = msg.value - donationAmount;\r\n\r\n    //     uint count = 0;\r\n    //     address payable[] memory tempArray;\r\n\r\n    //     for (uint i=0; i < charityAddresses.length; i++){\r\n    //         if(charityAddressInfos[charityAddresses[i]].organizationTypes[0] == organizationType \r\n    //         && isValidated[charityAddresses[i]]== true \r\n    //         && charityAddresses[i] != destinationAddress){\r\n    //             count++;\r\n    //             tempArray.push(charityAddresses[i]);\r\n    //         }\r\n    //     }\r\n\r\n    //     if(count > 0){\r\n    //         uint256 validatedAddressAmount = actualDeposit / count;\r\n\r\n    //         for(uint i=0; i< tempArray.length; i++){\r\n    //             tempArray[i].transfer(validatedAddressAmount);\r\n    //         } \r\n    //     }\r\n        \r\n    //     destinationAddress.transfer(donationAmount);\r\n\r\n    //     emit Donation(msg.sender, donationAmount, destinationAddress);\r\n\r\n    //     totalDonationsAmount += donationAmount;\r\n\r\n    //     if (donationAmount > highestDonation) {\r\n    //         highestDonation = donationAmount;\r\n    //         highestDonor = msg.sender;\r\n    //     }\r\n    // }\r\n\r\n    function validateCharityAddress(address payable validatingAddress)\r\n    isManager()\r\n    checkCharityAddress(validatingAddress) \r\n    public {\r\n        isValidated[validatingAddress] = true;\r\n        emit AddressValidation(msg.sender, validatingAddress);\r\n    }\r\n\r\n    function addManagerAddress(address managerAddress)\r\n    restrictToOwner()\r\n    isManager()\r\n    public {\r\n        isManagerAddress[managerAddress] = true;\r\n        emit AddManager(managerAddress);\r\n    }\r\n\r\n    /// Returns the total amount raised by all donations (in wei) towards any charity.\r\n    /// @return totalDonationsAmount\r\n    function getTotalDonationsAmount() public view returns (uint256) {\r\n        return totalDonationsAmount;\r\n    }\r\n\r\n    /// En yksek ba ve ba yapan dndrr\r\n    /// @return (highestDonation, highestDonor)\r\n    function getHighestDonation() public view restrictToOwner() returns (uint256, address payable)  {\r\n        return (highestDonation, payable(highestDonor));\r\n    }\r\n\r\n\r\n    // Contract' bir daha kullanlmamak zere blockchainden kaldrr\r\n    function destroy() public restrictToOwner() {\r\n        selfdestruct(payable(owner));\r\n    }\r\n}\r\n",
  "sourcePath": "C:\\Users\\alioz\\Documents\\ContractTests\\contracts\\Bagis.sol",
  "compiler": {
    "name": "solc",
    "version": "0.8.13+commit.abaa5c0e.Emscripten.clang"
  },
  "schemaVersion": "3.4.6",
  "updatedAt": "2022-06-20T22:03:08.070Z",
  "devdoc": {
    "kind": "dev",
    "methods": {
      "deposit(address,address[],uint256)": {
        "params": {
          "destinationAddress": "Ana adres",
          "mainPercentage": "Ana adrese aktarlacak yzde",
          "otherAddresses": "Dier adresler"
        }
      },
      "depositDirect(address,uint256)": {
        "params": {
          "destinationAddress": "Ana adres",
          "mainPercentage": "Ana adrese aktarlacak yzde"
        }
      },
      "getAddresses()": {
        "returns": {
          "_0": "charityAddresses"
        }
      },
      "getHighestDonation()": {
        "returns": {
          "_0": "(highestDonation, highestDonor)"
        }
      },
      "getTotalDonationsAmount()": {
        "returns": {
          "_0": "totalDonationsAmount"
        }
      }
    },
    "version": 1
  },
  "userdoc": {
    "events": {
      "Donation(address,uint256,address)": {
        "notice": "Ba yapan adresi ve ba miktarn blockchain'de kaydeder"
      }
    },
    "kind": "user",
    "methods": {
      "deposit(address,address[],uint256)": {
        "notice": "Parametre ile gelen yzdeyi ana adrese aktarr,  yzdenin geri kalanndaki miktar ise dier parametre ile gelen dier adresler arasnda bltrr"
      },
      "depositDirect(address,uint256)": {
        "notice": "Ana adrese ba yapar."
      },
      "getAddresses()": {
        "notice": "Btn ba adreslerini dndrr"
      },
      "getHighestDonation()": {
        "notice": "En yksek ba ve ba yapan dndrr"
      },
      "getTotalDonationsAmount()": {
        "notice": "Returns the total amount raised by all donations (in wei) towards any charity."
      }
    },
    "version": 1
  }
}