{
  "contractName": "MyContract",
  "abi": [
    {
      "inputs": [],
      "stateMutability": "nonpayable",
      "type": "constructor"
    },
    {
      "inputs": [],
      "name": "get",
      "outputs": [
        {
          "internalType": "string",
          "name": "",
          "type": "string"
        }
      ],
      "stateMutability": "view",
      "type": "function"
    },
    {
      "inputs": [
        {
          "internalType": "string",
          "name": "_value",
          "type": "string"
        }
      ],
      "name": "set",
      "outputs": [],
      "stateMutability": "nonpayable",
      "type": "function"
    },
    {
      "inputs": [],
      "name": "addAddress",
      "outputs": [],
      "stateMutability": "nonpayable",
      "type": "function"
    },
    {
      "inputs": [],
      "name": "getAddress",
      "outputs": [
        {
          "components": [
            {
              "internalType": "string",
              "name": "text",
              "type": "string"
            },
            {
              "internalType": "address payable",
              "name": "walletAddress",
              "type": "address"
            }
          ],
          "internalType": "struct MyContract.testStruct",
          "name": "",
          "type": "tuple"
        }
      ],
      "stateMutability": "view",
      "type": "function"
    }
  ],
  "bytecode": "0x608060405234801561001057600080fd5b506040518060400160405280600d81526020017f44656661756c742056616c7565000000000000000000000000000000000000008152506000908051906020019061005c929190610062565b50610165565b82805461006e90610134565b90600052602060002090601f01602090048101928261009057600085556100d7565b82601f106100a957805160ff19168380011785556100d7565b828001600101855582156100d7579182015b828111156100d65782518255916020019190600101906100bb565b5b5090506100e491906100e8565b5090565b5b808211156101015760008160009055506001016100e9565b5090565b7f4e487b7100000000000000000000000000000000000000000000000000000000600052602260045260246000fd5b6000600282049050600182168061014c57607f821691505b60208210810361015f5761015e610105565b5b50919050565b61084d806101746000396000f3fe608060405234801561001057600080fd5b506004361061004c5760003560e01c80630ee969531461005157806338cc48311461005b5780634ed3885e146100795780636d4ce63c14610095575b600080fd5b6100596100b3565b005b6100636101c2565b6040516100709190610597565b60405180910390f35b610093600480360381019061008e9190610702565b610301565b005b61009d61031b565b6040516100aa9190610795565b60405180910390f35b33600160003373ffffffffffffffffffffffffffffffffffffffff1673ffffffffffffffffffffffffffffffffffffffff16815260200190815260200160002060010160006101000a81548173ffffffffffffffffffffffffffffffffffffffff021916908373ffffffffffffffffffffffffffffffffffffffff1602179055506040518060400160405280601181526020017f43616c697320617274696b207965746572000000000000000000000000000000815250600160003373ffffffffffffffffffffffffffffffffffffffff1673ffffffffffffffffffffffffffffffffffffffff16815260200190815260200160002060000190805190602001906101bf9291906103ad565b50565b6101ca610433565b600160003373ffffffffffffffffffffffffffffffffffffffff1673ffffffffffffffffffffffffffffffffffffffff168152602001908152602001600020604051806040016040529081600082018054610224906107e6565b80601f0160208091040260200160405190810160405280929190818152602001828054610250906107e6565b801561029d5780601f106102725761010080835404028352916020019161029d565b820191906000526020600020905b81548152906001019060200180831161028057829003601f168201915b505050505081526020016001820160009054906101000a900473ffffffffffffffffffffffffffffffffffffffff1673ffffffffffffffffffffffffffffffffffffffff1673ffffffffffffffffffffffffffffffffffffffff1681525050905090565b80600090805190602001906103179291906103ad565b5050565b60606000805461032a906107e6565b80601f0160208091040260200160405190810160405280929190818152602001828054610356906107e6565b80156103a35780601f10610378576101008083540402835291602001916103a3565b820191906000526020600020905b81548152906001019060200180831161038657829003601f168201915b5050505050905090565b8280546103b9906107e6565b90600052602060002090601f0160209004810192826103db5760008555610422565b82601f106103f457805160ff1916838001178555610422565b82800160010185558215610422579182015b82811115610421578251825591602001919060010190610406565b5b50905061042f9190610463565b5090565b604051806040016040528060608152602001600073ffffffffffffffffffffffffffffffffffffffff1681525090565b5b8082111561047c576000816000905550600101610464565b5090565b600081519050919050565b600082825260208201905092915050565b60005b838110156104ba57808201518184015260208101905061049f565b838111156104c9576000848401525b50505050565b6000601f19601f8301169050919050565b60006104eb82610480565b6104f5818561048b565b935061050581856020860161049c565b61050e816104cf565b840191505092915050565b600073ffffffffffffffffffffffffffffffffffffffff82169050919050565b600061054482610519565b9050919050565b61055481610539565b82525050565b6000604083016000830151848203600086015261057782826104e0565b915050602083015161058c602086018261054b565b508091505092915050565b600060208201905081810360008301526105b1818461055a565b905092915050565b6000604051905090565b600080fd5b600080fd5b600080fd5b600080fd5b7f4e487b7100000000000000000000000000000000000000000000000000000000600052604160045260246000fd5b61060f826104cf565b810181811067ffffffffffffffff8211171561062e5761062d6105d7565b5b80604052505050565b60006106416105b9565b905061064d8282610606565b919050565b600067ffffffffffffffff82111561066d5761066c6105d7565b5b610676826104cf565b9050602081019050919050565b82818337600083830152505050565b60006106a56106a084610652565b610637565b9050828152602081018484840111156106c1576106c06105d2565b5b6106cc848285610683565b509392505050565b600082601f8301126106e9576106e86105cd565b5b81356106f9848260208601610692565b91505092915050565b600060208284031215610718576107176105c3565b5b600082013567ffffffffffffffff811115610736576107356105c8565b5b610742848285016106d4565b91505092915050565b600082825260208201905092915050565b600061076782610480565b610771818561074b565b935061078181856020860161049c565b61078a816104cf565b840191505092915050565b600060208201905081810360008301526107af818461075c565b905092915050565b7f4e487b7100000000000000000000000000000000000000000000000000000000600052602260045260246000fd5b600060028204905060018216806107fe57607f821691505b602082108103610811576108106107b7565b5b5091905056fea2646970667358221220e1a150434cfa8988987154f8af747f0ba56121b914be03f5c541dfa935822f8e64736f6c634300080d0033",
  "immutableReferences": {},
  "source": "// SPDX-License-Identifier: MIT\r\npragma solidity >=0.4.22 <0.9.0;\r\n\r\ncontract MyContract{\r\n    string value;\r\n    mapping (address => testStruct) addressTest;\r\n\r\n    struct testStruct{\r\n        string text;\r\n        address payable walletAddress;\r\n    }\r\n\r\n    constructor(){\r\n        value = \"Default Value\";\r\n    }\r\n    function get() public view returns(string memory){\r\n        return value;\r\n    }\r\n\r\n    function set(string memory _value) public{\r\n        value = _value;\r\n    }    \r\n\r\n    function addAddress() public{\r\n        addressTest[msg.sender].walletAddress = payable(msg.sender);\r\n        addressTest[msg.sender].text = \"Calis artik yeter\";\r\n    }\r\n\r\n    function getAddress() public view returns(testStruct memory){\r\n        return addressTest[msg.sender];\r\n    }\r\n}\r\n\r\ncontract Next{\r\n    uint public data= 30;\r\n    uint internal iData = 10;\r\n\r\n    function x() public returns (uint){\r\n        data = 3; //internal access\r\n        return data;\r\n    }\r\n}\r\n\r\ncontract Caller{\r\n    Next next = new Next();\r\n    function f() public view returns (uint){\r\n        return next.data(); //External access\r\n    }\r\n}\r\n\r\ncontract D is Next{\r\n    function y() public returns (uint){\r\n        iData = 3;\r\n        return iData;\r\n    }\r\n    \r\n    function getResult() public view returns(uint){\r\n        uint a=1; //Local variables\r\n        uint b=2;\r\n        uint result = a+b;\r\n        return result;\r\n    }\r\n}",
  "sourcePath": "C:\\Users\\alioz\\Documents\\ContractTests\\contracts\\MyContract.sol",
  "compiler": {
    "name": "solc",
    "version": "0.8.13+commit.abaa5c0e.Emscripten.clang"
  },
  "schemaVersion": "3.4.6",
  "updatedAt": "2022-06-11T14:36:11.046Z",
  "devdoc": {
    "kind": "dev",
    "methods": {},
    "version": 1
  },
  "userdoc": {
    "kind": "user",
    "methods": {},
    "version": 1
  }
}