{
  "contractName": "Next",
  "abi": [
    {
      "inputs": [],
      "name": "data",
      "outputs": [
        {
          "internalType": "uint256",
          "name": "",
          "type": "uint256"
        }
      ],
      "stateMutability": "view",
      "type": "function"
    },
    {
      "inputs": [],
      "name": "x",
      "outputs": [
        {
          "internalType": "uint256",
          "name": "",
          "type": "uint256"
        }
      ],
      "stateMutability": "nonpayable",
      "type": "function"
    }
  ],
  "bytecode": "0x6080604052601e600055600a60015534801561001a57600080fd5b5060e9806100296000396000f3fe6080604052348015600f57600080fd5b506004361060325760003560e01c80630c55699c14603757806373d4a13a146051575b600080fd5b603d606b565b60405160489190609a565b60405180910390f35b6057607d565b60405160629190609a565b60405180910390f35b60006003600081905550600054905090565b60005481565b6000819050919050565b6094816083565b82525050565b600060208201905060ad6000830184608d565b9291505056fea2646970667358221220feaacc5d279d303e4d84d075c9276db2c7f544c69ce3b2449ee1a8fa5b928bf764736f6c634300080d0033",
  "immutableReferences": {},
  "source": "// SPDX-License-Identifier: MIT\r\npragma solidity >=0.4.22 <0.9.0;\r\n\r\ncontract MyContract{\r\n    string value;\r\n    constructor(){\r\n        value = \"Default Value\";\r\n    }\r\n    function get() public view returns(string memory){\r\n        return value;\r\n    }\r\n\r\n    function set(string memory _value) public{\r\n        value = _value;\r\n    }\r\n\r\n    \r\n}\r\n\r\ncontract Next{\r\n    uint public data= 30;\r\n    uint internal iData = 10;\r\n\r\n    function x() public returns (uint){\r\n        data = 3; //internal access\r\n        return data;\r\n    }\r\n}\r\n\r\ncontract Caller{\r\n    Next next = new Next();\r\n    function f() public view returns (uint){\r\n        return next.data(); //External access\r\n    }\r\n}\r\n\r\ncontract D is Next{\r\n    function y() public returns (uint){\r\n        iData = 3;\r\n        return iData;\r\n    }\r\n    \r\n    function getResult() public view returns(uint){\r\n        uint a=1; //Local variables\r\n        uint b=2;\r\n        uint result = a+b;\r\n        return result;\r\n    }\r\n}",
  "sourcePath": "C:\\Users\\alioz\\Documents\\ContractTests\\contracts\\MyContract.sol",
  "compiler": {
    "name": "solc",
    "version": "0.8.13+commit.abaa5c0e.Emscripten.clang"
  },
  "schemaVersion": "3.4.6",
  "updatedAt": "2022-06-10T13:42:36.590Z",
  "devdoc": {
    "kind": "dev",
    "methods": {},
    "version": 1
  },
  "userdoc": {
    "kind": "user",
    "methods": {},
    "version": 1
  }
}