{
  "contractName": "Tickets",
  "abi": [
    {
      "inputs": [],
      "stateMutability": "nonpayable",
      "type": "constructor"
    },
    {
      "inputs": [],
      "name": "owner",
      "outputs": [
        {
          "internalType": "address",
          "name": "",
          "type": "address"
        }
      ],
      "stateMutability": "view",
      "type": "function"
    },
    {
      "inputs": [
        {
          "internalType": "uint256",
          "name": "",
          "type": "uint256"
        }
      ],
      "name": "tickets",
      "outputs": [
        {
          "internalType": "uint256",
          "name": "price",
          "type": "uint256"
        },
        {
          "internalType": "address",
          "name": "owner",
          "type": "address"
        }
      ],
      "stateMutability": "view",
      "type": "function"
    },
    {
      "inputs": [
        {
          "internalType": "uint256",
          "name": "_index",
          "type": "uint256"
        }
      ],
      "name": "buyTicket",
      "outputs": [],
      "stateMutability": "payable",
      "type": "function"
    }
  ],
  "bytecode": "0x6080604052336000806101000a81548173ffffffffffffffffffffffffffffffffffffffff021916908373ffffffffffffffffffffffffffffffffffffffff16021790555034801561005057600080fd5b5060005b600a8110156100f35767016345785d8a0000600182600a811061007a576100796100f9565b5b60020201600001819055506000600182600a811061009b5761009a6100f9565b5b6002020160010160006101000a81548173ffffffffffffffffffffffffffffffffffffffff021916908373ffffffffffffffffffffffffffffffffffffffff16021790555080806100eb90610161565b915050610054565b506101a9565b7f4e487b7100000000000000000000000000000000000000000000000000000000600052603260045260246000fd5b7f4e487b7100000000000000000000000000000000000000000000000000000000600052601160045260246000fd5b6000819050919050565b600061016c82610157565b91507fffffffffffffffffffffffffffffffffffffffffffffffffffffffffffffffff820361019e5761019d610128565b5b600182019050919050565b6103a0806101b86000396000f3fe6080604052600436106100345760003560e01c806350b447121461003957806367dd74ca146100775780638da5cb5b14610093575b600080fd5b34801561004557600080fd5b50610060600480360381019061005b919061027a565b6100be565b60405161006e9291906102f7565b60405180910390f35b610091600480360381019061008c919061027a565b610108565b005b34801561009f57600080fd5b506100a861021b565b6040516100b59190610320565b60405180910390f35b600181600a81106100ce57600080fd5b600202016000915090508060000154908060010160009054906101000a900473ffffffffffffffffffffffffffffffffffffffff16905082565b600a81108015610119575060008110155b61012257600080fd5b600073ffffffffffffffffffffffffffffffffffffffff16600182600a811061014e5761014d61033b565b5b6002020160010160009054906101000a900473ffffffffffffffffffffffffffffffffffffffff1673ffffffffffffffffffffffffffffffffffffffff161461019657600080fd5b600181600a81106101aa576101a961033b565b5b60020201600001543410156101be57600080fd5b33600182600a81106101d3576101d261033b565b5b6002020160010160006101000a81548173ffffffffffffffffffffffffffffffffffffffff021916908373ffffffffffffffffffffffffffffffffffffffff16021790555050565b60008054906101000a900473ffffffffffffffffffffffffffffffffffffffff1681565b600080fd5b6000819050919050565b61025781610244565b811461026257600080fd5b50565b6000813590506102748161024e565b92915050565b6000602082840312156102905761028f61023f565b5b600061029e84828501610265565b91505092915050565b6102b081610244565b82525050565b600073ffffffffffffffffffffffffffffffffffffffff82169050919050565b60006102e1826102b6565b9050919050565b6102f1816102d6565b82525050565b600060408201905061030c60008301856102a7565b61031960208301846102e8565b9392505050565b600060208201905061033560008301846102e8565b92915050565b7f4e487b7100000000000000000000000000000000000000000000000000000000600052603260045260246000fdfea264697066735822122083e33be6c71ac9c10b13d8db5978bf1f0b01ff9d4df15225367ea5aacdc17eab64736f6c634300080d0033",
  "immutableReferences": {},
  "source": "// SPDX-License-Identifier: MIT\r\npragma solidity >=0.4.22 <0.9.0;\r\n\r\nuint256 constant Total_Tickets=10; \r\n\r\ncontract Tickets{\r\n\r\n    address public owner=msg.sender;\r\n\r\n    struct Ticket{\r\n        uint256 price;\r\n        address owner;\r\n    }\r\n\r\n    Ticket[Total_Tickets] public tickets;\r\n\r\n    constructor(){\r\n        for (uint256 index = 0; index < Total_Tickets; index++) {\r\n            tickets[index].price=1e17; // 0.1 eth\r\n            tickets[index].owner=address(0x0);\r\n        }\r\n    }\r\n\r\n    //payable: bu fonksiyonu aran adrese para deme izni verir (msg.value)\r\n    //external: sadece contract dndan arlabilir\r\n    function buyTicket(uint256 _index) external payable{\r\n        require(_index<Total_Tickets && _index >= 0);\r\n        require(tickets[_index].owner == address(0x0));\r\n        require(msg.value>=tickets[_index].price);\r\n        tickets[_index].owner=msg.sender;\r\n    }\r\n\r\n}",
  "sourcePath": "C:\\Users\\alioz\\Documents\\ContractTests\\contracts\\Deneme.sol",
  "compiler": {
    "name": "solc",
    "version": "0.8.13+commit.abaa5c0e.Emscripten.clang"
  },
  "schemaVersion": "3.4.6",
  "updatedAt": "2022-06-28T21:57:34.849Z",
  "devdoc": {
    "kind": "dev",
    "methods": {},
    "version": 1
  },
  "userdoc": {
    "kind": "user",
    "methods": {},
    "version": 1
  }
}